{
  "_format": "hh-sol-artifact-1",
  "contractName": "LSP6KeyManager",
  "sourceName": "contracts/LSP6KeyManager/LSP6KeyManager.sol",
  "abi": [
    {
      "inputs": [
        {
          "internalType": "address",
          "name": "target_",
          "type": "address"
        }
      ],
      "stateMutability": "nonpayable",
      "type": "constructor"
    },
    {
      "inputs": [
        {
          "internalType": "bytes32",
          "name": "dataKey",
          "type": "bytes32"
        },
        {
          "internalType": "bytes",
          "name": "invalidValue",
          "type": "bytes"
        }
      ],
      "name": "AddressPermissionArrayIndexValueNotAnAddress",
      "type": "error"
    },
    {
      "inputs": [],
      "name": "BatchExecuteParamsLengthMismatch",
      "type": "error"
    },
    {
      "inputs": [],
      "name": "BatchExecuteRelayCallParamsLengthMismatch",
      "type": "error"
    },
    {
      "inputs": [],
      "name": "DelegateCallDisallowedViaKeyManager",
      "type": "error"
    },
    {
      "inputs": [
        {
          "internalType": "bytes4",
          "name": "invalidFunction",
          "type": "bytes4"
        }
      ],
      "name": "InvalidERC725Function",
      "type": "error"
    },
    {
      "inputs": [
        {
          "internalType": "bytes",
          "name": "allowedCallsValue",
          "type": "bytes"
        }
      ],
      "name": "InvalidEncodedAllowedCalls",
      "type": "error"
    },
    {
      "inputs": [
        {
          "internalType": "bytes",
          "name": "value",
          "type": "bytes"
        }
      ],
      "name": "InvalidEncodedAllowedERC725YDataKeys",
      "type": "error"
    },
    {
      "inputs": [],
      "name": "InvalidLSP6Target",
      "type": "error"
    },
    {
      "inputs": [
        {
          "internalType": "bytes",
          "name": "payload",
          "type": "bytes"
        }
      ],
      "name": "InvalidPayload",
      "type": "error"
    },
    {
      "inputs": [
        {
          "internalType": "address",
          "name": "signer",
          "type": "address"
        },
        {
          "internalType": "uint256",
          "name": "invalidNonce",
          "type": "uint256"
        },
        {
          "internalType": "bytes",
          "name": "signature",
          "type": "bytes"
        }
      ],
      "name": "InvalidRelayNonce",
      "type": "error"
    },
    {
      "inputs": [
        {
          "internalType": "address",
          "name": "from",
          "type": "address"
        }
      ],
      "name": "InvalidWhitelistedCall",
      "type": "error"
    },
    {
      "inputs": [
        {
          "internalType": "uint256",
          "name": "totalValues",
          "type": "uint256"
        },
        {
          "internalType": "uint256",
          "name": "msgValue",
          "type": "uint256"
        }
      ],
      "name": "LSP6BatchExcessiveValueSent",
      "type": "error"
    },
    {
      "inputs": [
        {
          "internalType": "uint256",
          "name": "totalValues",
          "type": "uint256"
        },
        {
          "internalType": "uint256",
          "name": "msgValue",
          "type": "uint256"
        }
      ],
      "name": "LSP6BatchInsufficientValueSent",
      "type": "error"
    },
    {
      "inputs": [
        {
          "internalType": "address",
          "name": "from",
          "type": "address"
        }
      ],
      "name": "NoCallsAllowed",
      "type": "error"
    },
    {
      "inputs": [
        {
          "internalType": "address",
          "name": "from",
          "type": "address"
        }
      ],
      "name": "NoERC725YDataKeysAllowed",
      "type": "error"
    },
    {
      "inputs": [
        {
          "internalType": "address",
          "name": "from",
          "type": "address"
        }
      ],
      "name": "NoPermissionsSet",
      "type": "error"
    },
    {
      "inputs": [
        {
          "internalType": "address",
          "name": "from",
          "type": "address"
        },
        {
          "internalType": "address",
          "name": "to",
          "type": "address"
        },
        {
          "internalType": "bytes4",
          "name": "selector",
          "type": "bytes4"
        }
      ],
      "name": "NotAllowedCall",
      "type": "error"
    },
    {
      "inputs": [
        {
          "internalType": "address",
          "name": "from",
          "type": "address"
        },
        {
          "internalType": "bytes32",
          "name": "disallowedKey",
          "type": "bytes32"
        }
      ],
      "name": "NotAllowedERC725YDataKey",
      "type": "error"
    },
    {
      "inputs": [
        {
          "internalType": "address",
          "name": "from",
          "type": "address"
        },
        {
          "internalType": "string",
          "name": "permission",
          "type": "string"
        }
      ],
      "name": "NotAuthorised",
      "type": "error"
    },
    {
      "inputs": [
        {
          "internalType": "bytes32",
          "name": "dataKey",
          "type": "bytes32"
        }
      ],
      "name": "NotRecognisedPermissionKey",
      "type": "error"
    },
    {
      "anonymous": false,
      "inputs": [
        {
          "indexed": true,
          "internalType": "bytes4",
          "name": "selector",
          "type": "bytes4"
        },
        {
          "indexed": true,
          "internalType": "uint256",
          "name": "value",
          "type": "uint256"
        }
      ],
      "name": "Executed",
      "type": "event"
    },
    {
      "inputs": [
        {
          "internalType": "bytes",
          "name": "payload",
          "type": "bytes"
        }
      ],
      "name": "execute",
      "outputs": [
        {
          "internalType": "bytes",
          "name": "",
          "type": "bytes"
        }
      ],
      "stateMutability": "payable",
      "type": "function"
    },
    {
      "inputs": [
        {
          "internalType": "uint256[]",
          "name": "values",
          "type": "uint256[]"
        },
        {
          "internalType": "bytes[]",
          "name": "payloads",
          "type": "bytes[]"
        }
      ],
      "name": "execute",
      "outputs": [
        {
          "internalType": "bytes[]",
          "name": "",
          "type": "bytes[]"
        }
      ],
      "stateMutability": "payable",
      "type": "function"
    },
    {
      "inputs": [
        {
          "internalType": "bytes",
          "name": "signature",
          "type": "bytes"
        },
        {
          "internalType": "uint256",
          "name": "nonce",
          "type": "uint256"
        },
        {
          "internalType": "bytes",
          "name": "payload",
          "type": "bytes"
        }
      ],
      "name": "executeRelayCall",
      "outputs": [
        {
          "internalType": "bytes",
          "name": "",
          "type": "bytes"
        }
      ],
      "stateMutability": "payable",
      "type": "function"
    },
    {
      "inputs": [
        {
          "internalType": "bytes[]",
          "name": "signatures",
          "type": "bytes[]"
        },
        {
          "internalType": "uint256[]",
          "name": "nonces",
          "type": "uint256[]"
        },
        {
          "internalType": "uint256[]",
          "name": "values",
          "type": "uint256[]"
        },
        {
          "internalType": "bytes[]",
          "name": "payloads",
          "type": "bytes[]"
        }
      ],
      "name": "executeRelayCall",
      "outputs": [
        {
          "internalType": "bytes[]",
          "name": "",
          "type": "bytes[]"
        }
      ],
      "stateMutability": "payable",
      "type": "function"
    },
    {
      "inputs": [
        {
          "internalType": "address",
          "name": "from",
          "type": "address"
        },
        {
          "internalType": "uint128",
          "name": "channelId",
          "type": "uint128"
        }
      ],
      "name": "getNonce",
      "outputs": [
        {
          "internalType": "uint256",
          "name": "",
          "type": "uint256"
        }
      ],
      "stateMutability": "view",
      "type": "function"
    },
    {
      "inputs": [
        {
          "internalType": "bytes32",
          "name": "dataHash",
          "type": "bytes32"
        },
        {
          "internalType": "bytes",
          "name": "signature",
          "type": "bytes"
        }
      ],
      "name": "isValidSignature",
      "outputs": [
        {
          "internalType": "bytes4",
          "name": "magicValue",
          "type": "bytes4"
        }
      ],
      "stateMutability": "view",
      "type": "function"
    },
    {
      "inputs": [
        {
          "internalType": "bytes4",
          "name": "interfaceId",
          "type": "bytes4"
        }
      ],
      "name": "supportsInterface",
      "outputs": [
        {
          "internalType": "bool",
          "name": "",
          "type": "bool"
        }
      ],
      "stateMutability": "view",
      "type": "function"
    },
    {
      "inputs": [],
      "name": "target",
      "outputs": [
        {
          "internalType": "address",
          "name": "",
          "type": "address"
        }
      ],
      "stateMutability": "view",
      "type": "function"
    }
  ],
  "bytecode": "0x60806040523480156200001157600080fd5b50604051620033db380380620033db83398101604081905262000034916200007e565b6001600160a01b0381166200005c5760405163fc85457960e01b815260040160405180910390fd5b600080546001600160a81b0319166001600160a01b03831617905550620000b0565b6000602082840312156200009157600080fd5b81516001600160a01b0381168114620000a957600080fd5b9392505050565b61331b80620000c06000396000f3fe60806040526004361061007b5760003560e01c8063b44581d91161004e578063b44581d914610121578063bd68663a1461019f578063bf3e1f7b146101bf578063d4b83992146101d257600080fd5b806301ffc9a71461008057806309c5eabe146100b55780631626ba7e146100d5578063902d5fa01461010e575b600080fd5b34801561008c57600080fd5b506100a061009b36600461289d565b6101fa565b60405190151581526020015b60405180910390f35b6100c86100c3366004612909565b610265565b6040516100ac91906129a3565b3480156100e157600080fd5b506100f56100f0366004612a7b565b610279565b6040516001600160e01b031990911681526020016100ac565b6100c861011c366004612ac2565b6102d1565b34801561012d57600080fd5b5061019161013c366004612b32565b6001600160a01b03821660009081526001602090815260408083206fffffffffffffffffffffffffffffffff851684529091529020546fffffffffffffffffffffffffffffffff19608083901b161792915050565b6040519081526020016100ac565b6101b26101ad366004612c80565b6102e9565b6040516100ac9190612d3f565b6101b26101cd366004612da1565b6104ce565b3480156101de57600080fd5b506000546040516001600160a01b0390911681526020016100ac565b60006001600160e01b031982167ffb43741400000000000000000000000000000000000000000000000000000000148061024457506001600160e01b03198216630b135d3f60e11b145b8061025f57506301ffc9a760e01b6001600160e01b03198316145b92915050565b606061027234848461065e565b9392505050565b60008061028684846106bb565b6000549091506102ae9062200000906102a8906001600160a01b0316846106df565b81161490565b6102c0576001600160e01b03196102c9565b630b135d3f60e11b5b949350505050565b60606102e0858534868661078d565b95945050505050565b8651606090861415806102fc5750858414155b806103075750838214155b1561033e576040517fb4d50d2100000000000000000000000000000000000000000000000000000000815260040160405180910390fd5b60008267ffffffffffffffff811115610359576103596129b6565b60405190808252806020026020018201604052801561038c57816020015b60608152602001906001900390816103775790505b5090506000805b8481101561049657348888838181106103ae576103ae612e01565b90506020020135836103c09190612e2d565b92508211156103f057604051630c28c92b60e21b8152600481018390523460248201526044015b60405180910390fd5b6104688b828151811061040557610405612e01565b60200260200101518b8b8481811061041f5761041f612e01565b905060200201358a8a8581811061043857610438612e01565b9050602002013589898681811061045157610451612e01565b90506020028101906104639190612e45565b61078d565b83828151811061047a5761047a612e01565b602002602001018190525061048f8160010190565b9050610393565b50348110156104c15760405163528c345b60e11b8152600481018290523460248201526044016103e7565b5098975050505050505050565b6060838214610509576040517f55a187db00000000000000000000000000000000000000000000000000000000815260040160405180910390fd5b60008267ffffffffffffffff811115610524576105246129b6565b60405190808252806020026020018201604052801561055757816020015b60608152602001906001900390816105425790505b5090506000805b84811015610629573488888381811061057957610579612e01565b905060200201358361058b9190612e2d565b92508211156105b657604051630c28c92b60e21b8152600481018390523460248201526044016103e7565b6105fb8888838181106105cb576105cb612e01565b905060200201358787848181106105e4576105e4612e01565b90506020028101906105f69190612e45565b61065e565b83828151811061060d5761060d612e01565b60200260200101819052506106228160010190565b905061055e565b50348110156106545760405163528c345b60e11b8152600481018290523460248201526044016103e7565b5095945050505050565b60606004821015610686578282604051630d886ef360e21b81526004016103e7929190612e8c565b61068f336108bc565b61069a33848461090a565b60006106a7858585610b56565b90506102c96000805460ff60a01b19169055565b60008060006106ca8585610c8a565b915091506106d781610ccf565b509392505050565b6000806001600160a01b0384166354f6127f61071f7f4b80742de2bf82acb36300000000000000000000000000000000000000000000606087901b610e34565b6040518263ffffffff1660e01b815260040161073d91815260200190565b600060405180830381865afa15801561075a573d6000803e3d6000fd5b505050506040513d6000823e601f3d908101601f191682016040526107829190810190612ebb565b90506102c981612f29565b606060048210156107b5578282604051630d886ef360e21b81526004016103e7929190612e8c565b6000600646878787876040516020016107d396959493929190612f50565b60408051601f19818403018152919052905060006107fb886107f53085610e9d565b906106bb565b9050610806816108bc565b6108108188610ed0565b61084c578087896040517fc9bd9eb90000000000000000000000000000000000000000000000000000000081526004016103e793929190612f7f565b6001600160a01b038116600090815260016020908152604080832060808b901c8452909152812080549161087f83612fa7565b919050555061088f81868661090a565b600061089c878787610b56565b90506108b06000805460ff60a01b19169055565b98975050505050505050565b600054600160a01b900460ff16156108f4576000546108f19082906108ea906001600160a01b0316826106df565b6080610f1b565b50565b6000805460ff60a01b1916600160a01b17905550565b60008054610921906001600160a01b0316856106df565b905080610965576040517ff292052a0000000000000000000000000000000000000000000000000000000081526001600160a01b03851660048201526024016103e7565b60006109718385612fc0565b90507f80dc96f4000000000000000000000000000000000000000000000000000000006001600160e01b03198216016109e6576000806109b48560048189612ff0565b8101906109c19190612a7b565b60005491935091506109df906001600160a01b031688868585610f2b565b5050610b4f565b7feb591d6d000000000000000000000000000000000000000000000000000000006001600160e01b0319821601610a5257600080610a278560048189612ff0565b810190610a34919061301a565b60005491935091506109df906001600160a01b031688868585610f9a565b7fbb3fd702000000000000000000000000000000000000000000000000000000006001600160e01b0319821601610aa157600054610a9c906001600160a01b0316868487876110ca565b610b4f565b6001600160e01b031981167ff2fde38b000000000000000000000000000000000000000000000000000000001480610b0257506001600160e01b031981167f79ba509700000000000000000000000000000000000000000000000000000000145b15610b1157610a9c858361126d565b6040517f2ba8851c0000000000000000000000000000000000000000000000000000000081526001600160e01b0319821660048201526024016103e7565b5050505050565b606083610b638385612fc0565b7bffffffffffffffffffffffffffffffffffffffffffffffffffffffff19167f4004d18dc05f04c061c306cbb394d4083af494786ab828142d6118ab2c43a49260405160405180910390a36000805481906001600160a01b0316865a908787604051610bd09291906130c9565b600060405180830381858888f193505050503d8060008114610c0e576040519150601f19603f3d011682016040523d82523d6000602084013e610c13565b606091505b50915091506000610c5a83836040518060400160405280601e81526020017f4c5350363a206661696c656420657865637574696e67207061796c6f616400008152506112a6565b90508051600003610c6b5780610c7f565b80806020019051810190610c7f9190612ebb565b979650505050505050565b6000808251604103610cc05760208301516040840151606085015160001a610cb4878285856112bf565b94509450505050610cc8565b506000905060025b9250929050565b6000816004811115610ce357610ce36130d9565b03610ceb5750565b6001816004811115610cff57610cff6130d9565b03610d4c5760405162461bcd60e51b815260206004820152601860248201527f45434453413a20696e76616c6964207369676e6174757265000000000000000060448201526064016103e7565b6002816004811115610d6057610d606130d9565b03610dad5760405162461bcd60e51b815260206004820152601f60248201527f45434453413a20696e76616c6964207369676e6174757265206c656e6774680060448201526064016103e7565b6003816004811115610dc157610dc16130d9565b036108f15760405162461bcd60e51b815260206004820152602260248201527f45434453413a20696e76616c6964207369676e6174757265202773272076616c60448201527f756500000000000000000000000000000000000000000000000000000000000060648201526084016103e7565b604080517fffffffffffffffffffff00000000000000000000000000000000000000000000841660208201526000602a82018190526bffffffffffffffffffffffff198416602c830152918291016040516020818303038152906040529050806102c990612f29565b60008282604051602001610eb29291906130ef565b60405160208183030381529060405280519060200120905092915050565b6001600160a01b0382166000908152600160209081526040808320608085901c8452909152812054610f137001000000000000000000000000000000008461314d565b149392505050565b610f26838383611383565b505050565b6000610f388684846113b6565b90506203ffff198101610f87576202000080851603610f575750610b4f565b610f65858562040000610f1b565b610f828584610f7d6001600160a01b038a16836115e0565b611680565b610f92565b610f92858583610f1b565b505050505050565b600080835167ffffffffffffffff811115610fb757610fb76129b6565b604051908082528060200260200182016040528015610fe0578160200160208202803683370190505b5090506000805b61102489878381518110610ffd57610ffd612e01565b602002602001015187848151811061101757611017612e01565b60200260200101516113b6565b91506203ffff19820161103a576001935061106a565b611045888884610f1b565b600183828151811061105957611059612e01565b911515602092830291909101909101525b60018101905085518110610fe75783156110bf5762020000808816036110935750505050610b4f565b6110a1888862040000610f1b565b6110bf88876110b96001600160a01b038d16836115e0565b866117b3565b505050505050505050565b60006110da602460048486612ff0565b6110e39161316f565b90506003198101611120576040517f80d6ebae00000000000000000000000000000000000000000000000000000000815260040160405180910390fd5b6000611130606460448587612ff0565b6111399161316f565b90506000600183148061114c5750600283145b905060a484116000826111715761116c611165866119bc565b8981161490565b611174565b60005b905080158015611182575081155b801561118c575083155b156111a4576111a4898961119f886119f3565b610f1b565b8180156111af575080155b156111c2576111c2898961119f886119f3565b6101008881161484158015906111d6575080155b156111e8576111e88a8a610200610f1b565b83156111f957505050505050610b4f565b818015611204575084155b1561121457505050505050610b4f565b80801561121f575082155b801561122a57508415155b1561123a57505050505050610b4f565b8180156112445750805b1561125457505050505050610b4f565b6112608b8b8a8a611a49565b5050505050505050505050565b6001808216146112a25760006112836001611cf2565b90508281604051631ded6b7360e11b81526004016103e792919061318d565b5050565b606083156112b5575081610272565b61027283836120db565b6000807f7fffffffffffffffffffffffffffffff5d576e7357a4501ddfe92f46681b20a08311156112f6575060009050600361137a565b6040805160008082526020820180845289905260ff881692820192909252606081018690526080810185905260019060a0016020604051602081039080840390855afa15801561134a573d6000803e3d6000fd5b5050604051601f1901519150506001600160a01b0381166113735760006001925092505061137a565b9150600090505b94509492505050565b8082168114610f2657600061139782611cf2565b90508381604051631ded6b7360e11b81526004016103e792919061318d565b60007f20cf245f92495cf19acab2659b39f67a000000000000000000000000000000006fffffffffffffffffffffffffffffffff19841601611404576113fd848484612105565b9050610272565b7fb47f8bd21d4100000000000000000000000000000000000000000000000000007fffffffffffff0000000000000000000000000000000000000000000000000000841601611535577fb47f8bd21d407d534c9d000000000000000000000000000000000000000000006001600160a01b0319841601611488576113fd8484612235565b7fb47f8bd21d40c6c59b39000000000000000000000000000000000000000000006001600160a01b03198416016114c4576113fd8484846122c5565b7fb47f8bd21d407993d6ef000000000000000000000000000000000000000000006001600160a01b0319841601611500576113fd848484612373565b6040517f0f7d735b000000000000000000000000000000000000000000000000000000008152600481018490526024016103e7565b7f0cfc51aec37c55a4d0b1a65c6255c4bf2fbdf6277f3cc0730c45b828b6db8b4783148061158c57506001600160a01b031983167f0cfc51aec37c55a4d0b100000000000000000000000000000000000000000000145b1561159b576113fd84846123b6565b7f311874bf6b2579feef6a000000000000000000000000000000000000000000006001600160a01b03198416016115d6576113fd848461243c565b5062040000610272565b60606001600160a01b0383166354f6127f61161d7f4b80742de2bf866c29110000000000000000000000000000000000000000000085851b610e34565b6040518263ffffffff1660e01b815260040161163b91815260200190565b600060405180830381865afa158015611658573d6000803e3d6000fd5b505050506040513d6000823e601f3d908101601f191682016040526102729190810190612ebb565b80516000036116ad5760405163ed7fa50960e01b81526001600160a01b03841660048201526024016103e7565b6000806000805b8451841015611788578484815181106116cf576116cf612e01565b01602001516001600160f81b031916856116ea866001612e2d565b815181106116fa576116fa612e01565b016020908101516040516001600160f81b03199384169281019290925291909116602182015260220160405160208183030381529060405261173b906131af565b60f01c925061174b8360206131ff565b611756906008613216565b8585016022015160001990911b90811692509050858116820361177c5750505050505050565b928201600201926116b4565b60405163557ae07960e01b81526001600160a01b0388166004820152602481018790526044016103e7565b81516000036117e05760405163ed7fa50960e01b81526001600160a01b03851660048201526024016103e7565b8251600090818080805b875184101561193d5787848151811061180557611805612e01565b01602001516001600160f81b03191688611820866001612e2d565b8151811061183057611830612e01565b016020908101516040516001600160f81b031993841692810192909252919091166021820152602201604051602081830303815290604052611871906131af565b60f01c92506118818360206131ff565b61188c906008613216565b8885016022015160001990911b9081169250905060005b85811015611930578781815181106118bd576118bd612e01565b60200260200101516119285782828b83815181106118dd576118dd612e01565b602002602001015116036119285760018882815181106118ff576118ff612e01565b9115156020928302919091019091015260018701965085870361192857505050505050506119b6565b6001016118a3565b50928201600201926117ea565b60005b858110156112605787818151811061195a5761195a612e01565b60200260200101516119ae578a8a828151811061197957611979612e01565b602090810291909101015160405163557ae07960e01b81526001600160a01b03909216600483015260248201526044016103e7565b600101611940565b50505050565b6000816119cc5750610400919050565b600382036119dd5750611000919050565b600482036119ee5750614000919050565b919050565b600081611a035750610800919050565b60018203611a15575062010000919050565b60028203611a27575062010000919050565b60038203611a385750612000919050565b600482036119ee5750618000919050565b6000611a59604460308486612ff0565b611a6291613235565b60601c905060a88210801590600090611a8f57611a8360a860a48688612ff0565b611a8c91612fc0565b90505b6000611aa46001600160a01b038916886124c2565b80519091506000819003611aef576040517f6cb605870000000000000000000000000000000000000000000000000000000081526001600160a01b03891660048201526024016103e7565b6000806000805b84811015611c9c5784611b0a82601e612e2d565b1115611b2b578560405163187e77ab60e01b81526004016103e791906129a3565b6000611b4387611b3c846002612e2d565b601c6124ff565b9050611b4e81613268565b63ffffffff199081169003611b9a576040517f6fd203c50000000000000000000000000000000000000000000000000000000081526001600160a01b038e1660048201526024016103e7565b6000611ba582613298565b905060006020611bb484613268565b63ffffffff1916901b60601c9050600060c0611bcf85613268565b63ffffffff1916901b90506001600160e01b03198084161480611c005750611c006001600160a01b038e1684612627565b97506001600160a01b038083161480611c2a5750816001600160a01b03168d6001600160a01b0316145b96506001600160e01b03198082161480611c5857508b8015611c5857506001600160e01b03198b8116908216145b9550878015611c645750865b8015611c6d5750855b15611c8457505050505050505050505050506119b6565b50505050601e81611c959190612e2d565b9050611af6565b506040517f45147bce0000000000000000000000000000000000000000000000000000000081526001600160a01b03808d166004830152891660248201526001600160e01b0319871660448201526064016103e7565b60606000198201611d3657505060408051808201909152601181527f5452414e534645524f574e455253484950000000000000000000000000000000602082015290565b6003198201611d7857505060408051808201909152601181527f4348414e47455045524d495353494f4e53000000000000000000000000000000602082015290565b6001198201611dba57505060408051808201909152600d81527f414444434f4e54524f4c4c455200000000000000000000000000000000000000602082015290565b6007198201611dfc57505060408051808201909152600d81527f414444455854454e53494f4e5300000000000000000000000000000000000000602082015290565b600f198201611e3e57505060408051808201909152601081527f4348414e4745455854454e53494f4e5300000000000000000000000000000000602082015290565b601f198201611e8057505060408051808201909152601c81527f414444554e4956455253414c524543454956455244454c454741544500000000602082015290565b603f198201611ec257505060408051808201909152601f81527f4348414e4745554e4956455253414c524543454956455244454c454741544500602082015290565b607f198201611f0457505060408051808201909152600a81527f5245454e5452414e435900000000000000000000000000000000000000000000602082015290565b6203ffff198201611f4857505060408051808201909152600781527f5345544441544100000000000000000000000000000000000000000000000000602082015290565b6107ff198201611f8b57505060408051808201909152600481527f43414c4c00000000000000000000000000000000000000000000000000000000602082015290565b611fff198201611fce57505060408051808201909152600a81527f53544154494343414c4c00000000000000000000000000000000000000000000602082015290565b617fff19820161201157505060408051808201909152600c81527f44454c454741544543414c4c0000000000000000000000000000000000000000602082015290565b61ffff19820161205457505060408051808201909152600681527f4445504c4f590000000000000000000000000000000000000000000000000000602082015290565b6101ff19820161209757505060408051808201909152600d81527f5452414e5346455256414c554500000000000000000000000000000000000000602082015290565b621fffff1982016119ee57505060408051808201909152600481527f5349474e00000000000000000000000000000000000000000000000000000000602082015290565b8151156120eb5781518083602001fd5b8060405162461bcd60e51b81526004016103e791906129a3565b6040516354f6127f60e01b81526004810183905260009081906001600160a01b038616906354f6127f90602401600060405180830381865afa15801561214f573d6000803e3d6000fd5b505050506040513d6000823e601f3d908101601f191682016040526121779190810190612ebb565b90507f20cf245f92495cf19acab2659b39f679e0f76aba35a7394b241ce5a0cc734f1d84016121cf5760006121ab84612f29565b90506121b682612f29565b81116121c35760046121c6565b60025b92505050610272565b8251158015906121e157508251601414155b1561221c5783836040517f8f4afa380000000000000000000000000000000000000000000000000000000081526004016103e79291906132cc565b80511561222a5760046102e0565b600295945050505050565b6040516354f6127f60e01b81526004810182905260009081906001600160a01b038516906354f6127f90602401600060405180830381865afa15801561227f573d6000803e3d6000fd5b505050506040513d6000823e601f3d908101601f191682016040526122a79190810190612ebb565b6122b090612f29565b146122bc576004610272565b50600292915050565b60006122d0826126c1565b6122ef578160405163187e77ab60e01b81526004016103e791906129a3565b6040516354f6127f60e01b8152600481018490526001600160a01b038516906354f6127f90602401600060405180830381865afa158015612334573d6000803e3d6000fd5b505050506040513d6000823e601f3d908101601f1916820160405261235c9190810190612ebb565b51156123695760046102c9565b6002949350505050565b600061237e826127b7565b6122ef57816040517f4f0dfdda0000000000000000000000000000000000000000000000000000000081526004016103e791906129a3565b6040516354f6127f60e01b8152600481018290526000906001600160a01b038416906354f6127f90602401600060405180830381865afa1580156123fe573d6000803e3d6000fd5b505050506040513d6000823e601f3d908101601f191682016040526124269190810190612ebb565b5115612433576040610272565b50602092915050565b6040516354f6127f60e01b8152600481018290526000906001600160a01b038416906354f6127f90602401600060405180830381865afa158015612484573d6000803e3d6000fd5b505050506040513d6000823e601f3d908101601f191682016040526124ac9190810190612ebb565b51156124b9576010610272565b50600892915050565b60606001600160a01b0383166354f6127f61161d7f4b80742de2bf393a64c70000000000000000000000000000000000000000000085851b610e34565b60608161250d81601f612e2d565b101561255b5760405162461bcd60e51b815260206004820152600e60248201527f736c6963655f6f766572666c6f7700000000000000000000000000000000000060448201526064016103e7565b6125658284612e2d565b845110156125b55760405162461bcd60e51b815260206004820152601160248201527f736c6963655f6f75744f66426f756e647300000000000000000000000000000060448201526064016103e7565b6060821580156125d4576040519150600082526020820160405261261e565b6040519150601f8416801560200281840101858101878315602002848b0101015b8183101561260d5780518352602092830192016125f5565b5050858452601f01601f1916604052505b50949350505050565b604080516001600160e01b03198316602480830191909152825180830390910181526044909101909152602080820180517bffffffffffffffffffffffffffffffffffffffffffffffffffffffff166301ffc9a760e01b178152825160009392849283928392918391908a617530fa92503d915060005190508280156126ae575060208210155b8015610c7f575015159695505050505050565b6000805b825181101561279d5782516126db826001612e2d565b106126e95750600092915050565b60008382815181106126fd576126fd612e01565b01602001516001600160f81b03191684612718846001612e2d565b8151811061272857612728612e01565b016020908101516040516001600160f81b031993841692810192909252919091166021820152602201604051602081830303815290604052612769906131af565b60f01c9050601c8114612780575060009392505050565b61278b816002612e2d565b6127959083612e2d565b9150506126c5565b825181036127ae5750600192915050565b50600092915050565b6000805b825181101561279d5782516127d1826001612e2d565b106127df5750600092915050565b60008382815181106127f3576127f3612e01565b01602001516001600160f81b0319168461280e846001612e2d565b8151811061281e5761281e612e01565b016020908101516040516001600160f81b03199384169281019290925291909116602182015260220160405160208183030381529060405261285f906131af565b60f01c90508015806128715750602081115b15612880575060009392505050565b61288b816002612e2d565b6128959083612e2d565b9150506127bb565b6000602082840312156128af57600080fd5b81356001600160e01b03198116811461027257600080fd5b60008083601f8401126128d957600080fd5b50813567ffffffffffffffff8111156128f157600080fd5b602083019150836020828501011115610cc857600080fd5b6000806020838503121561291c57600080fd5b823567ffffffffffffffff81111561293357600080fd5b61293f858286016128c7565b90969095509350505050565b60005b8381101561296657818101518382015260200161294e565b838111156119b65750506000910152565b6000815180845261298f81602086016020860161294b565b601f01601f19169290920160200192915050565b6020815260006102726020830184612977565b634e487b7160e01b600052604160045260246000fd5b604051601f8201601f1916810167ffffffffffffffff811182821017156129f5576129f56129b6565b604052919050565b600067ffffffffffffffff821115612a1757612a176129b6565b50601f01601f191660200190565b600082601f830112612a3657600080fd5b8135612a49612a44826129fd565b6129cc565b818152846020838601011115612a5e57600080fd5b816020850160208301376000918101602001919091529392505050565b60008060408385031215612a8e57600080fd5b82359150602083013567ffffffffffffffff811115612aac57600080fd5b612ab885828601612a25565b9150509250929050565b60008060008060608587031215612ad857600080fd5b843567ffffffffffffffff80821115612af057600080fd5b612afc88838901612a25565b9550602087013594506040870135915080821115612b1957600080fd5b50612b26878288016128c7565b95989497509550505050565b60008060408385031215612b4557600080fd5b82356001600160a01b0381168114612b5c57600080fd5b915060208301356fffffffffffffffffffffffffffffffff81168114612b8157600080fd5b809150509250929050565b600067ffffffffffffffff821115612ba657612ba66129b6565b5060051b60200190565b600082601f830112612bc157600080fd5b81356020612bd1612a4483612b8c565b82815260059290921b84018101918181019086841115612bf057600080fd5b8286015b84811015612c3057803567ffffffffffffffff811115612c145760008081fd5b612c228986838b0101612a25565b845250918301918301612bf4565b509695505050505050565b60008083601f840112612c4d57600080fd5b50813567ffffffffffffffff811115612c6557600080fd5b6020830191508360208260051b8501011115610cc857600080fd5b60008060008060008060006080888a031215612c9b57600080fd5b873567ffffffffffffffff80821115612cb357600080fd5b612cbf8b838c01612bb0565b985060208a0135915080821115612cd557600080fd5b612ce18b838c01612c3b565b909850965060408a0135915080821115612cfa57600080fd5b612d068b838c01612c3b565b909650945060608a0135915080821115612d1f57600080fd5b50612d2c8a828b01612c3b565b989b979a50959850939692959293505050565b6000602080830181845280855180835260408601915060408160051b870101925083870160005b82811015612d9457603f19888603018452612d82858351612977565b94509285019290850190600101612d66565b5092979650505050505050565b60008060008060408587031215612db757600080fd5b843567ffffffffffffffff80821115612dcf57600080fd5b612ddb88838901612c3b565b90965094506020870135915080821115612df457600080fd5b50612b2687828801612c3b565b634e487b7160e01b600052603260045260246000fd5b634e487b7160e01b600052601160045260246000fd5b60008219821115612e4057612e40612e17565b500190565b6000808335601e19843603018112612e5c57600080fd5b83018035915067ffffffffffffffff821115612e7757600080fd5b602001915036819003821315610cc857600080fd5b60208152816020820152818360408301376000818301604090810191909152601f909201601f19160101919050565b600060208284031215612ecd57600080fd5b815167ffffffffffffffff811115612ee457600080fd5b8201601f81018413612ef557600080fd5b8051612f03612a44826129fd565b818152856020838501011115612f1857600080fd5b6102e082602083016020860161294b565b80516020808301519190811015612f4a576000198160200360031b1b821691505b50919050565b868152856020820152846040820152836060820152818360808301376000910160800190815295945050505050565b6001600160a01b03841681528260208201526060604082015260006102e06060830184612977565b600060018201612fb957612fb9612e17565b5060010190565b6001600160e01b03198135818116916004851015612fe85780818660040360031b1b83161692505b505092915050565b6000808585111561300057600080fd5b8386111561300d57600080fd5b5050820193919092039150565b6000806040838503121561302d57600080fd5b823567ffffffffffffffff8082111561304557600080fd5b818501915085601f83011261305957600080fd5b81356020613069612a4483612b8c565b82815260059290921b8401810191818101908984111561308857600080fd5b948201945b838610156130a65785358252948201949082019061308d565b965050860135925050808211156130bc57600080fd5b50612ab885828601612bb0565b8183823760009101908152919050565b634e487b7160e01b600052602160045260246000fd5b7f190000000000000000000000000000000000000000000000000000000000000081526bffffffffffffffffffffffff198360601b1660028201526000825161313f81601685016020870161294b565b919091016016019392505050565b60008261316a57634e487b7160e01b600052601260045260246000fd5b500690565b8035602083101561025f57600019602084900360031b1b1692915050565b6001600160a01b03831681526040602082015260006102c96040830184612977565b6000815160208301517fffff000000000000000000000000000000000000000000000000000000000000808216935060028310156131f75780818460020360031b1b83161693505b505050919050565b60008282101561321157613211612e17565b500390565b600081600019048311821515161561323057613230612e17565b500290565b6bffffffffffffffffffffffff198135818116916014851015612fe85760149490940360031b84901b1690921692915050565b8051602082015163ffffffff19808216929190601c8310156131f757601c9290920360031b82901b161692915050565b6000815160208301516001600160e01b0319808216935060048310156131f75760049290920360031b82901b161692915050565b8281526040602082015260006102c9604083018461297756fea2646970667358221220d9c8284aca2a3b624b66e9c2aa1d0bd505587963f67df440c233cc1b57e47ddc64736f6c634300080f0033",
  "linkReferences": {},
  "deployedLinkReferences": {}
}