{
  "_format": "hh-sol-artifact-1",
  "contractName": "LSP7Mintable",
  "sourceName": "contracts/LSP7DigitalAsset/presets/LSP7Mintable.sol",
  "abi": [
    {
      "inputs": [
        {
          "internalType": "string",
          "name": "name_",
          "type": "string"
        },
        {
          "internalType": "string",
          "name": "symbol_",
          "type": "string"
        },
        {
          "internalType": "address",
          "name": "newOwner_",
          "type": "address"
        },
        {
          "internalType": "bool",
          "name": "isNonDivisible_",
          "type": "bool"
        }
      ],
      "stateMutability": "nonpayable",
      "type": "constructor"
    },
    {
      "inputs": [
        {
          "internalType": "uint256",
          "name": "dataKeysLength",
          "type": "uint256"
        },
        {
          "internalType": "uint256",
          "name": "dataValuesLength",
          "type": "uint256"
        }
      ],
      "name": "ERC725Y_DataKeysValuesLengthMismatch",
      "type": "error"
    },
    {
      "inputs": [],
      "name": "LSP4TokenNameNotEditable",
      "type": "error"
    },
    {
      "inputs": [],
      "name": "LSP4TokenSymbolNotEditable",
      "type": "error"
    },
    {
      "inputs": [
        {
          "internalType": "address",
          "name": "tokenOwner",
          "type": "address"
        },
        {
          "internalType": "uint256",
          "name": "authorizedAmount",
          "type": "uint256"
        },
        {
          "internalType": "address",
          "name": "operator",
          "type": "address"
        },
        {
          "internalType": "uint256",
          "name": "amount",
          "type": "uint256"
        }
      ],
      "name": "LSP7AmountExceedsAuthorizedAmount",
      "type": "error"
    },
    {
      "inputs": [
        {
          "internalType": "uint256",
          "name": "balance",
          "type": "uint256"
        },
        {
          "internalType": "address",
          "name": "tokenOwner",
          "type": "address"
        },
        {
          "internalType": "uint256",
          "name": "amount",
          "type": "uint256"
        }
      ],
      "name": "LSP7AmountExceedsBalance",
      "type": "error"
    },
    {
      "inputs": [],
      "name": "LSP7CannotSendToSelf",
      "type": "error"
    },
    {
      "inputs": [],
      "name": "LSP7CannotSendWithAddressZero",
      "type": "error"
    },
    {
      "inputs": [],
      "name": "LSP7CannotUseAddressZeroAsOperator",
      "type": "error"
    },
    {
      "inputs": [],
      "name": "LSP7InvalidTransferBatch",
      "type": "error"
    },
    {
      "inputs": [
        {
          "internalType": "address",
          "name": "tokenReceiver",
          "type": "address"
        }
      ],
      "name": "LSP7NotifyTokenReceiverContractMissingLSP1Interface",
      "type": "error"
    },
    {
      "inputs": [
        {
          "internalType": "address",
          "name": "tokenReceiver",
          "type": "address"
        }
      ],
      "name": "LSP7NotifyTokenReceiverIsEOA",
      "type": "error"
    },
    {
      "inputs": [],
      "name": "LSP7TokenOwnerCannotBeOperator",
      "type": "error"
    },
    {
      "anonymous": false,
      "inputs": [
        {
          "indexed": true,
          "internalType": "address",
          "name": "operator",
          "type": "address"
        },
        {
          "indexed": true,
          "internalType": "address",
          "name": "tokenOwner",
          "type": "address"
        },
        {
          "indexed": true,
          "internalType": "uint256",
          "name": "amount",
          "type": "uint256"
        }
      ],
      "name": "AuthorizedOperator",
      "type": "event"
    },
    {
      "anonymous": false,
      "inputs": [
        {
          "indexed": true,
          "internalType": "bytes32",
          "name": "dataKey",
          "type": "bytes32"
        },
        {
          "indexed": false,
          "internalType": "bytes",
          "name": "dataValue",
          "type": "bytes"
        }
      ],
      "name": "DataChanged",
      "type": "event"
    },
    {
      "anonymous": false,
      "inputs": [
        {
          "indexed": true,
          "internalType": "address",
          "name": "previousOwner",
          "type": "address"
        },
        {
          "indexed": true,
          "internalType": "address",
          "name": "newOwner",
          "type": "address"
        }
      ],
      "name": "OwnershipTransferred",
      "type": "event"
    },
    {
      "anonymous": false,
      "inputs": [
        {
          "indexed": true,
          "internalType": "address",
          "name": "operator",
          "type": "address"
        },
        {
          "indexed": true,
          "internalType": "address",
          "name": "tokenOwner",
          "type": "address"
        }
      ],
      "name": "RevokedOperator",
      "type": "event"
    },
    {
      "anonymous": false,
      "inputs": [
        {
          "indexed": true,
          "internalType": "address",
          "name": "operator",
          "type": "address"
        },
        {
          "indexed": true,
          "internalType": "address",
          "name": "from",
          "type": "address"
        },
        {
          "indexed": true,
          "internalType": "address",
          "name": "to",
          "type": "address"
        },
        {
          "indexed": false,
          "internalType": "uint256",
          "name": "amount",
          "type": "uint256"
        },
        {
          "indexed": false,
          "internalType": "bool",
          "name": "allowNonLSP1Recipient",
          "type": "bool"
        },
        {
          "indexed": false,
          "internalType": "bytes",
          "name": "data",
          "type": "bytes"
        }
      ],
      "name": "Transfer",
      "type": "event"
    },
    {
      "inputs": [
        {
          "internalType": "address",
          "name": "operator",
          "type": "address"
        },
        {
          "internalType": "uint256",
          "name": "amount",
          "type": "uint256"
        }
      ],
      "name": "authorizeOperator",
      "outputs": [],
      "stateMutability": "nonpayable",
      "type": "function"
    },
    {
      "inputs": [
        {
          "internalType": "address",
          "name": "operator",
          "type": "address"
        },
        {
          "internalType": "address",
          "name": "tokenOwner",
          "type": "address"
        }
      ],
      "name": "authorizedAmountFor",
      "outputs": [
        {
          "internalType": "uint256",
          "name": "",
          "type": "uint256"
        }
      ],
      "stateMutability": "view",
      "type": "function"
    },
    {
      "inputs": [
        {
          "internalType": "address",
          "name": "tokenOwner",
          "type": "address"
        }
      ],
      "name": "balanceOf",
      "outputs": [
        {
          "internalType": "uint256",
          "name": "",
          "type": "uint256"
        }
      ],
      "stateMutability": "view",
      "type": "function"
    },
    {
      "inputs": [],
      "name": "decimals",
      "outputs": [
        {
          "internalType": "uint8",
          "name": "",
          "type": "uint8"
        }
      ],
      "stateMutability": "view",
      "type": "function"
    },
    {
      "inputs": [
        {
          "internalType": "bytes32[]",
          "name": "dataKeys",
          "type": "bytes32[]"
        }
      ],
      "name": "getData",
      "outputs": [
        {
          "internalType": "bytes[]",
          "name": "dataValues",
          "type": "bytes[]"
        }
      ],
      "stateMutability": "view",
      "type": "function"
    },
    {
      "inputs": [
        {
          "internalType": "bytes32",
          "name": "dataKey",
          "type": "bytes32"
        }
      ],
      "name": "getData",
      "outputs": [
        {
          "internalType": "bytes",
          "name": "dataValue",
          "type": "bytes"
        }
      ],
      "stateMutability": "view",
      "type": "function"
    },
    {
      "inputs": [
        {
          "internalType": "address",
          "name": "to",
          "type": "address"
        },
        {
          "internalType": "uint256",
          "name": "amount",
          "type": "uint256"
        },
        {
          "internalType": "bool",
          "name": "allowNonLSP1Recipient",
          "type": "bool"
        },
        {
          "internalType": "bytes",
          "name": "data",
          "type": "bytes"
        }
      ],
      "name": "mint",
      "outputs": [],
      "stateMutability": "nonpayable",
      "type": "function"
    },
    {
      "inputs": [],
      "name": "owner",
      "outputs": [
        {
          "internalType": "address",
          "name": "",
          "type": "address"
        }
      ],
      "stateMutability": "view",
      "type": "function"
    },
    {
      "inputs": [],
      "name": "renounceOwnership",
      "outputs": [],
      "stateMutability": "nonpayable",
      "type": "function"
    },
    {
      "inputs": [
        {
          "internalType": "address",
          "name": "operator",
          "type": "address"
        }
      ],
      "name": "revokeOperator",
      "outputs": [],
      "stateMutability": "nonpayable",
      "type": "function"
    },
    {
      "inputs": [
        {
          "internalType": "bytes32[]",
          "name": "dataKeys",
          "type": "bytes32[]"
        },
        {
          "internalType": "bytes[]",
          "name": "dataValues",
          "type": "bytes[]"
        }
      ],
      "name": "setData",
      "outputs": [],
      "stateMutability": "nonpayable",
      "type": "function"
    },
    {
      "inputs": [
        {
          "internalType": "bytes32",
          "name": "dataKey",
          "type": "bytes32"
        },
        {
          "internalType": "bytes",
          "name": "dataValue",
          "type": "bytes"
        }
      ],
      "name": "setData",
      "outputs": [],
      "stateMutability": "nonpayable",
      "type": "function"
    },
    {
      "inputs": [
        {
          "internalType": "bytes4",
          "name": "interfaceId",
          "type": "bytes4"
        }
      ],
      "name": "supportsInterface",
      "outputs": [
        {
          "internalType": "bool",
          "name": "",
          "type": "bool"
        }
      ],
      "stateMutability": "view",
      "type": "function"
    },
    {
      "inputs": [],
      "name": "totalSupply",
      "outputs": [
        {
          "internalType": "uint256",
          "name": "",
          "type": "uint256"
        }
      ],
      "stateMutability": "view",
      "type": "function"
    },
    {
      "inputs": [
        {
          "internalType": "address",
          "name": "from",
          "type": "address"
        },
        {
          "internalType": "address",
          "name": "to",
          "type": "address"
        },
        {
          "internalType": "uint256",
          "name": "amount",
          "type": "uint256"
        },
        {
          "internalType": "bool",
          "name": "allowNonLSP1Recipient",
          "type": "bool"
        },
        {
          "internalType": "bytes",
          "name": "data",
          "type": "bytes"
        }
      ],
      "name": "transfer",
      "outputs": [],
      "stateMutability": "nonpayable",
      "type": "function"
    },
    {
      "inputs": [
        {
          "internalType": "address[]",
          "name": "from",
          "type": "address[]"
        },
        {
          "internalType": "address[]",
          "name": "to",
          "type": "address[]"
        },
        {
          "internalType": "uint256[]",
          "name": "amount",
          "type": "uint256[]"
        },
        {
          "internalType": "bool[]",
          "name": "allowNonLSP1Recipient",
          "type": "bool[]"
        },
        {
          "internalType": "bytes[]",
          "name": "data",
          "type": "bytes[]"
        }
      ],
      "name": "transferBatch",
      "outputs": [],
      "stateMutability": "nonpayable",
      "type": "function"
    },
    {
      "inputs": [
        {
          "internalType": "address",
          "name": "newOwner",
          "type": "address"
        }
      ],
      "name": "transferOwnership",
      "outputs": [],
      "stateMutability": "nonpayable",
      "type": "function"
    }
  ],
  "bytecode": "0x60806040523480156200001157600080fd5b50604051620021d9380380620021d9833981016040819052620000349162000344565b83838383838383806001600160a01b038116620000a65760405162461bcd60e51b815260206004820152602660248201527f4f776e61626c653a206e6577206f776e657220697320746865207a65726f206160448201526564647265737360d01b606482015260840160405180910390fd5b620000bc81620001aa60201b620007d51760201c565b50620001137feafec4d89fa9619884b60000a4d96624a38f7ac2d8d9a604ecf07c12c77e480c60001b604051806040016040528060048152602001632936598960e21b8152506200021160201b620008521760201c565b6200014d7fdeba1e292f8ba88238e10ab3c7f88bd4be4fac56cad5194b6ecceaf653468af160001b846200021160201b620008521760201c565b620001877f2f0a68ab07768e01943a599e73362a0e17a63a72e94dd2e384d2c1d4db93275660001b836200021160201b620008521760201c565b50506002805460ff19169215159290921790915550620005799650505050505050565b6000546001600160a01b038281169116146200020e57600080546001600160a01b038381166001600160a01b0319831681178455604051919092169283917f8be0079c531659141344cd1fd0a4f28419497f9722a3daafe3b4186f6b6457e09190a3505b50565b60008281526001602052604090206200022b828262000478565b50817fece574603820d07bc9b91f2a932baadf4628aabcb8afba49776529c14a6104b2826040516200025e919062000544565b60405180910390a25050565b634e487b7160e01b600052604160045260246000fd5b60005b838110156200029d57818101518382015260200162000283565b83811115620002ad576000848401525b50505050565b600082601f830112620002c557600080fd5b81516001600160401b0380821115620002e257620002e26200026a565b604051601f8301601f19908116603f011681019082821181831017156200030d576200030d6200026a565b816040528381528660208588010111156200032757600080fd5b6200033a84602083016020890162000280565b9695505050505050565b600080600080608085870312156200035b57600080fd5b84516001600160401b03808211156200037357600080fd5b6200038188838901620002b3565b955060208701519150808211156200039857600080fd5b50620003a787828801620002b3565b604087015190945090506001600160a01b0381168114620003c757600080fd5b60608601519092508015158114620003de57600080fd5b939692955090935050565b600181811c90821680620003fe57607f821691505b6020821081036200041f57634e487b7160e01b600052602260045260246000fd5b50919050565b601f8211156200047357600081815260208120601f850160051c810160208610156200044e5750805b601f850160051c820191505b818110156200046f578281556001016200045a565b5050505b505050565b81516001600160401b038111156200049457620004946200026a565b620004ac81620004a58454620003e9565b8462000425565b602080601f831160018114620004e45760008415620004cb5750858301515b600019600386901b1c1916600185901b1785556200046f565b600085815260208120601f198616915b828110156200051557888601518255948401946001909101908401620004f4565b5085821015620005345787850151600019600388901b60f8161c191681555b5050505050600190811b01905550565b60208152600082518060208401526200056581604085016020870162000280565b601f01601f19169190910160400192915050565b611c5080620005896000396000f3fe608060405234801561001057600080fd5b506004361061011b5760003560e01c806365aeaa95116100b2578063760d9bba116100815780638da5cb5b116100665780638da5cb5b1461026c578063f2fde38b14610287578063fad8b32a1461029a57600080fd5b8063760d9bba146102465780637f23690c1461025957600080fd5b806365aeaa95146101ef57806370a0823114610202578063715018a61461022b5780637580d9201461023357600080fd5b8063313ce567116100ee578063313ce5671461018257806347980aa31461019c5780634e3e6e9c146101af57806354f6127f146101cf57600080fd5b806301ffc9a71461012057806314a6e2931461014857806318160ddd1461015d5780632d7667c91461016f575b600080fd5b61013361012e3660046112b5565b6102ad565b60405190151581526020015b60405180910390f35b61015b6101563660046114b5565b6102f1565b005b6003545b60405190815260200161013f565b61015b61017d366004611609565b61039b565b61018a6104a3565b60405160ff909116815260200161013f565b61015b6101aa3660046116db565b6104bc565b6101c26101bd366004611705565b6104cb565b60405161013f919061179a565b6101e26101dd3660046117fc565b61057f565b60405161013f9190611815565b6101616101fd366004611828565b61058a565b61016161021036600461185b565b6001600160a01b031660009081526004602052604090205490565b61015b6105f1565b61015b610241366004611876565b610605565b61015b6102543660046118de565b61061f565b61015b61026736600461194a565b610727565b6000546040516001600160a01b03909116815260200161013f565b61015b61029536600461185b565b610739565b61015b6102a836600461185b565b6107c9565b60006001600160e01b031982167fda1f85e40000000000000000000000000000000000000000000000000000000014806102eb57506102eb826108a7565b92915050565b6102f96108f5565b805182511461034657815181516040517f43a3c266000000000000000000000000000000000000000000000000000000008152600481019290925260248201526044015b60405180910390fd5b60005b82518110156103965761038e83828151811061036757610367611987565b602002602001015183838151811061038157610381611987565b602002602001015161095e565b600101610349565b505050565b84518451811415806103ae575083518114155b806103ba575082518114155b806103c6575081518114155b156103fd576040517f263eee8d00000000000000000000000000000000000000000000000000000000815260040160405180910390fd5b60005b8181101561049a5761049287828151811061041d5761041d611987565b602002602001015187838151811061043757610437611987565b602002602001015187848151811061045157610451611987565b602002602001015187858151811061046b5761046b611987565b602002602001015187868151811061048557610485611987565b602002602001015161061f565b600101610400565b50505050505050565b60025460009060ff166104b65750601290565b50600090565b6104c7338383610a78565b5050565b6060815167ffffffffffffffff8111156104e7576104e76112e6565b60405190808252806020026020018201604052801561051a57816020015b60608152602001906001900390816105055790505b50905060005b82518110156105795761054b83828151811061053e5761053e611987565b6020026020010151610bbc565b82828151811061055d5761055d611987565b60200260200101819052506105728160010190565b9050610520565b50919050565b60606102eb82610bbc565b6000826001600160a01b0316826001600160a01b0316036105c457506001600160a01b0381166000908152600460205260409020546102eb565b506001600160a01b0380821660009081526005602090815260408083209386168352929052205492915050565b6105f96108f5565b61060360006107d5565b565b61060d6108f5565b61061984848484610c5e565b50505050565b836001600160a01b0316856001600160a01b03160361066a576040517fb9afb00000000000000000000000000000000000000000000000000000000000815260040160405180910390fd5b336001600160a01b0386168114610712576001600160a01b03808716600090815260056020908152604080832093851683529290522054808511156106fc576040517ff3a6b6910000000000000000000000000000000000000000000000000000000081526001600160a01b03808916600483015260248201839052831660448201526064810186905260840161033d565b610710878361070b88856119b3565b610a78565b505b61071f8686868686610d3b565b505050505050565b61072f6108f5565b6104c7828261095e565b6107416108f5565b6001600160a01b0381166107bd5760405162461bcd60e51b815260206004820152602660248201527f4f776e61626c653a206e6577206f776e657220697320746865207a65726f206160448201527f6464726573730000000000000000000000000000000000000000000000000000606482015260840161033d565b6107c6816107d5565b50565b6107c633826000610a78565b6000546001600160a01b038281169116146107c657600080546001600160a01b038381167fffffffffffffffffffffffff0000000000000000000000000000000000000000831681178455604051919092169283917f8be0079c531659141344cd1fd0a4f28419497f9722a3daafe3b4186f6b6457e09190a35050565b600082815260016020526040902061086a8282611a44565b50817fece574603820d07bc9b91f2a932baadf4628aabcb8afba49776529c14a6104b28260405161089b9190611815565b60405180910390a25050565b60006001600160e01b031982167f714df77c0000000000000000000000000000000000000000000000000000000014806102eb57506301ffc9a760e01b6001600160e01b03198316146102eb565b336109086000546001600160a01b031690565b6001600160a01b0316146106035760405162461bcd60e51b815260206004820181905260248201527f4f776e61626c653a2063616c6c6572206973206e6f7420746865206f776e6572604482015260640161033d565b7f2145e1d6d074577dc71ef54c3807742b41b053a9352ae6b491331509acb9750f82016109b7576040517f85c169bd00000000000000000000000000000000000000000000000000000000815260040160405180910390fd5b7fd0f59754f88971fe6bc5a6618cc9d5f1e859c58d16b22d1c7b2d3e2b246cd8aa8201610a10576040517f76755b3800000000000000000000000000000000000000000000000000000000815260040160405180910390fd5b6000828152600160205260409020610a288282611a44565b50817fece574603820d07bc9b91f2a932baadf4628aabcb8afba49776529c14a6104b261010083511115610a6957610a64836000610100610eb1565b610a6b565b825b60405161089b9190611815565b6001600160a01b038216610ab8576040517f6355e76600000000000000000000000000000000000000000000000000000000815260040160405180910390fd5b826001600160a01b0316826001600160a01b031603610b03576040517fdab7504700000000000000000000000000000000000000000000000000000000815260040160405180910390fd5b6001600160a01b0380841660009081526005602090815260408083209386168352929052208190558015610b775780836001600160a01b0316836001600160a01b03167fd66aff874162a96578e919097b6f6d153dfd89a5cec41bb331fdb0c4aec16e2c60405160405180910390a4505050565b826001600160a01b0316826001600160a01b03167f50546e66e5f44d728365dc3908c63bc5cfeeab470722c1677e3073a6ac294aa160405160405180910390a3505050565b6000818152600160205260409020805460609190610bd9906119ca565b80601f0160208091040260200160405190810160405280929190818152602001828054610c05906119ca565b8015610c525780601f10610c2757610100808354040283529160200191610c52565b820191906000526020600020905b815481529060010190602001808311610c3557829003601f168201915b50505050509050919050565b6001600160a01b038416610c8557604051630d2d5ec360e41b815260040160405180910390fd5b338360036000828254610c989190611b04565b90915550506001600160a01b03851660009081526004602052604081208054869290610cc5908490611b04565b92505081905550846001600160a01b031660006001600160a01b0316826001600160a01b03167f3997e418d2cef0b3b0e907b1e39605c3f7d32dbd061e82ea5b4a770d46a160a6878787604051610d1e93929190611b1c565b60405180910390a4610d34600086868686610fd9565b5050505050565b6001600160a01b0385161580610d5857506001600160a01b038416155b15610d7657604051630d2d5ec360e41b815260040160405180910390fd5b6001600160a01b03851660009081526004602052604090205480841115610de2576040517f08d47949000000000000000000000000000000000000000000000000000000008152600481018290526001600160a01b03871660248201526044810185905260640161033d565b336001600160a01b03871660009081526004602052604081208054879290610e0b9084906119b3565b90915550506001600160a01b03861660009081526004602052604081208054879290610e38908490611b04565b92505081905550856001600160a01b0316876001600160a01b0316826001600160a01b03167f3997e418d2cef0b3b0e907b1e39605c3f7d32dbd061e82ea5b4a770d46a160a6888888604051610e9093929190611b1c565b60405180910390a4610ea487878786611143565b61049a8787878787610fd9565b606081610ebf81601f611b04565b1015610f0d5760405162461bcd60e51b815260206004820152600e60248201527f736c6963655f6f766572666c6f77000000000000000000000000000000000000604482015260640161033d565b610f178284611b04565b84511015610f675760405162461bcd60e51b815260206004820152601160248201527f736c6963655f6f75744f66426f756e6473000000000000000000000000000000604482015260640161033d565b606082158015610f865760405191506000825260208201604052610fd0565b6040519150601f8416801560200281840101858101878315602002848b0101015b81831015610fbf578051835260209283019201610fa7565b5050858452601f01601f1916604052505b50949350505050565b610fea84631aed5a8560e21b611217565b156110b4576000858585846040516020016110089493929190611b46565b60408051601f1981840301815290829052631aed5a8560e21b825291506001600160a01b03861690636bb56a1490611066907f20804611b3e2ea21c480dc465142210acf4a2485947541770ec1fb87dee4a55c908590600401611b93565b6000604051808303816000875af1158015611085573d6000803e3d6000fd5b505050506040513d6000823e601f3d908101601f191682016040526110ad9190810190611bac565b5050610d34565b81610d34576001600160a01b0384163b15611106576040517fa608fbb60000000000000000000000000000000000000000000000000000000081526001600160a01b038516600482015260240161033d565b6040517f26c247f40000000000000000000000000000000000000000000000000000000081526001600160a01b038516600482015260240161033d565b61115484631aed5a8560e21b611217565b15610619576000848484846040516020016111729493929190611b46565b60408051601f1981840301815290829052631aed5a8560e21b825291506001600160a01b03861690636bb56a14906111d0907f429ac7a06903dbc9c13dfcb3c9d11df8194581fa047c96d7a4171fc7402958ea908590600401611b93565b6000604051808303816000875af11580156111ef573d6000803e3d6000fd5b505050506040513d6000823e601f3d908101601f1916820160405261071f9190810190611bac565b604080516001600160e01b03198316602480830191909152825180830390910181526044909101909152602080820180517bffffffffffffffffffffffffffffffffffffffffffffffffffffffff166301ffc9a760e01b178152825160009392849283928392918391908a617530fa92503d9150600051905082801561129e575060208210155b80156112aa5750600081115b979650505050505050565b6000602082840312156112c757600080fd5b81356001600160e01b0319811681146112df57600080fd5b9392505050565b634e487b7160e01b600052604160045260246000fd5b604051601f8201601f1916810167ffffffffffffffff81118282101715611325576113256112e6565b604052919050565b600067ffffffffffffffff821115611347576113476112e6565b5060051b60200190565b600082601f83011261136257600080fd5b813560206113776113728361132d565b6112fc565b82815260059290921b8401810191818101908684111561139657600080fd5b8286015b848110156113b1578035835291830191830161139a565b509695505050505050565b600067ffffffffffffffff8211156113d6576113d66112e6565b50601f01601f191660200190565b600082601f8301126113f557600080fd5b8135611403611372826113bc565b81815284602083860101111561141857600080fd5b816020850160208301376000918101602001919091529392505050565b600082601f83011261144657600080fd5b813560206114566113728361132d565b82815260059290921b8401810191818101908684111561147557600080fd5b8286015b848110156113b157803567ffffffffffffffff8111156114995760008081fd5b6114a78986838b01016113e4565b845250918301918301611479565b600080604083850312156114c857600080fd5b823567ffffffffffffffff808211156114e057600080fd5b6114ec86838701611351565b9350602085013591508082111561150257600080fd5b5061150f85828601611435565b9150509250929050565b80356001600160a01b038116811461153057600080fd5b919050565b600082601f83011261154657600080fd5b813560206115566113728361132d565b82815260059290921b8401810191818101908684111561157557600080fd5b8286015b848110156113b15761158a81611519565b8352918301918301611579565b8035801515811461153057600080fd5b600082601f8301126115b857600080fd5b813560206115c86113728361132d565b82815260059290921b840181019181810190868411156115e757600080fd5b8286015b848110156113b1576115fc81611597565b83529183019183016115eb565b600080600080600060a0868803121561162157600080fd5b853567ffffffffffffffff8082111561163957600080fd5b61164589838a01611535565b9650602088013591508082111561165b57600080fd5b61166789838a01611535565b9550604088013591508082111561167d57600080fd5b61168989838a01611351565b9450606088013591508082111561169f57600080fd5b6116ab89838a016115a7565b935060808801359150808211156116c157600080fd5b506116ce88828901611435565b9150509295509295909350565b600080604083850312156116ee57600080fd5b6116f783611519565b946020939093013593505050565b60006020828403121561171757600080fd5b813567ffffffffffffffff81111561172e57600080fd5b61173a84828501611351565b949350505050565b60005b8381101561175d578181015183820152602001611745565b838111156106195750506000910152565b60008151808452611786816020860160208601611742565b601f01601f19169290920160200192915050565b6000602080830181845280855180835260408601915060408160051b870101925083870160005b828110156117ef57603f198886030184526117dd85835161176e565b945092850192908501906001016117c1565b5092979650505050505050565b60006020828403121561180e57600080fd5b5035919050565b6020815260006112df602083018461176e565b6000806040838503121561183b57600080fd5b61184483611519565b915061185260208401611519565b90509250929050565b60006020828403121561186d57600080fd5b6112df82611519565b6000806000806080858703121561188c57600080fd5b61189585611519565b9350602085013592506118aa60408601611597565b9150606085013567ffffffffffffffff8111156118c657600080fd5b6118d2878288016113e4565b91505092959194509250565b600080600080600060a086880312156118f657600080fd5b6118ff86611519565b945061190d60208701611519565b93506040860135925061192260608701611597565b9150608086013567ffffffffffffffff81111561193e57600080fd5b6116ce888289016113e4565b6000806040838503121561195d57600080fd5b82359150602083013567ffffffffffffffff81111561197b57600080fd5b61150f858286016113e4565b634e487b7160e01b600052603260045260246000fd5b634e487b7160e01b600052601160045260246000fd5b6000828210156119c5576119c561199d565b500390565b600181811c908216806119de57607f821691505b60208210810361057957634e487b7160e01b600052602260045260246000fd5b601f82111561039657600081815260208120601f850160051c81016020861015611a255750805b601f850160051c820191505b8181101561071f57828155600101611a31565b815167ffffffffffffffff811115611a5e57611a5e6112e6565b611a7281611a6c84546119ca565b846119fe565b602080601f831160018114611aa75760008415611a8f5750858301515b600019600386901b1c1916600185901b17855561071f565b600085815260208120601f198616915b82811015611ad657888601518255948401946001909101908401611ab7565b5085821015611af45787850151600019600388901b60f8161c191681555b5050505050600190811b01905550565b60008219821115611b1757611b1761199d565b500190565b8381528215156020820152606060408201526000611b3d606083018461176e565b95945050505050565b60006bffffffffffffffffffffffff19808760601b168352808660601b166014840152508360288301528251611b83816048850160208701611742565b9190910160480195945050505050565b82815260406020820152600061173a604083018461176e565b600060208284031215611bbe57600080fd5b815167ffffffffffffffff811115611bd557600080fd5b8201601f81018413611be657600080fd5b8051611bf4611372826113bc565b818152856020838501011115611c0957600080fd5b611b3d82602083016020860161174256fea2646970667358221220996168f15cd95f361c009ad7563d5e1e1ab17d8ea6741b15ab90ceb986d97a9364736f6c634300080f0033",
  "linkReferences": {},
  "deployedLinkReferences": {}
}