{
  "_format": "hh-sol-artifact-1",
  "contractName": "LSP8Mintable",
  "sourceName": "contracts/LSP8IdentifiableDigitalAsset/presets/LSP8Mintable.sol",
  "abi": [
    {
      "inputs": [
        {
          "internalType": "string",
          "name": "name_",
          "type": "string"
        },
        {
          "internalType": "string",
          "name": "symbol_",
          "type": "string"
        },
        {
          "internalType": "address",
          "name": "newOwner_",
          "type": "address"
        }
      ],
      "stateMutability": "nonpayable",
      "type": "constructor"
    },
    {
      "inputs": [
        {
          "internalType": "uint256",
          "name": "dataKeysLength",
          "type": "uint256"
        },
        {
          "internalType": "uint256",
          "name": "dataValuesLength",
          "type": "uint256"
        }
      ],
      "name": "ERC725Y_DataKeysValuesLengthMismatch",
      "type": "error"
    },
    {
      "inputs": [],
      "name": "LSP4TokenNameNotEditable",
      "type": "error"
    },
    {
      "inputs": [],
      "name": "LSP4TokenSymbolNotEditable",
      "type": "error"
    },
    {
      "inputs": [],
      "name": "LSP8CannotSendToAddressZero",
      "type": "error"
    },
    {
      "inputs": [],
      "name": "LSP8CannotSendToSelf",
      "type": "error"
    },
    {
      "inputs": [],
      "name": "LSP8CannotUseAddressZeroAsOperator",
      "type": "error"
    },
    {
      "inputs": [],
      "name": "LSP8InvalidTransferBatch",
      "type": "error"
    },
    {
      "inputs": [
        {
          "internalType": "bytes32",
          "name": "tokenId",
          "type": "bytes32"
        }
      ],
      "name": "LSP8NonExistentTokenId",
      "type": "error"
    },
    {
      "inputs": [
        {
          "internalType": "address",
          "name": "operator",
          "type": "address"
        },
        {
          "internalType": "bytes32",
          "name": "tokenId",
          "type": "bytes32"
        }
      ],
      "name": "LSP8NonExistingOperator",
      "type": "error"
    },
    {
      "inputs": [
        {
          "internalType": "bytes32",
          "name": "tokenId",
          "type": "bytes32"
        },
        {
          "internalType": "address",
          "name": "caller",
          "type": "address"
        }
      ],
      "name": "LSP8NotTokenOperator",
      "type": "error"
    },
    {
      "inputs": [
        {
          "internalType": "address",
          "name": "tokenOwner",
          "type": "address"
        },
        {
          "internalType": "bytes32",
          "name": "tokenId",
          "type": "bytes32"
        },
        {
          "internalType": "address",
          "name": "caller",
          "type": "address"
        }
      ],
      "name": "LSP8NotTokenOwner",
      "type": "error"
    },
    {
      "inputs": [
        {
          "internalType": "address",
          "name": "tokenReceiver",
          "type": "address"
        }
      ],
      "name": "LSP8NotifyTokenReceiverContractMissingLSP1Interface",
      "type": "error"
    },
    {
      "inputs": [
        {
          "internalType": "address",
          "name": "tokenReceiver",
          "type": "address"
        }
      ],
      "name": "LSP8NotifyTokenReceiverIsEOA",
      "type": "error"
    },
    {
      "inputs": [
        {
          "internalType": "address",
          "name": "operator",
          "type": "address"
        },
        {
          "internalType": "bytes32",
          "name": "tokenId",
          "type": "bytes32"
        }
      ],
      "name": "LSP8OperatorAlreadyAuthorized",
      "type": "error"
    },
    {
      "inputs": [
        {
          "internalType": "bytes32",
          "name": "tokenId",
          "type": "bytes32"
        }
      ],
      "name": "LSP8TokenIdAlreadyMinted",
      "type": "error"
    },
    {
      "inputs": [],
      "name": "LSP8TokenOwnerCannotBeOperator",
      "type": "error"
    },
    {
      "anonymous": false,
      "inputs": [
        {
          "indexed": true,
          "internalType": "address",
          "name": "operator",
          "type": "address"
        },
        {
          "indexed": true,
          "internalType": "address",
          "name": "tokenOwner",
          "type": "address"
        },
        {
          "indexed": true,
          "internalType": "bytes32",
          "name": "tokenId",
          "type": "bytes32"
        }
      ],
      "name": "AuthorizedOperator",
      "type": "event"
    },
    {
      "anonymous": false,
      "inputs": [
        {
          "indexed": true,
          "internalType": "bytes32",
          "name": "dataKey",
          "type": "bytes32"
        },
        {
          "indexed": false,
          "internalType": "bytes",
          "name": "dataValue",
          "type": "bytes"
        }
      ],
      "name": "DataChanged",
      "type": "event"
    },
    {
      "anonymous": false,
      "inputs": [
        {
          "indexed": true,
          "internalType": "address",
          "name": "previousOwner",
          "type": "address"
        },
        {
          "indexed": true,
          "internalType": "address",
          "name": "newOwner",
          "type": "address"
        }
      ],
      "name": "OwnershipTransferred",
      "type": "event"
    },
    {
      "anonymous": false,
      "inputs": [
        {
          "indexed": true,
          "internalType": "address",
          "name": "operator",
          "type": "address"
        },
        {
          "indexed": true,
          "internalType": "address",
          "name": "tokenOwner",
          "type": "address"
        },
        {
          "indexed": true,
          "internalType": "bytes32",
          "name": "tokenId",
          "type": "bytes32"
        }
      ],
      "name": "RevokedOperator",
      "type": "event"
    },
    {
      "anonymous": false,
      "inputs": [
        {
          "indexed": false,
          "internalType": "address",
          "name": "operator",
          "type": "address"
        },
        {
          "indexed": true,
          "internalType": "address",
          "name": "from",
          "type": "address"
        },
        {
          "indexed": true,
          "internalType": "address",
          "name": "to",
          "type": "address"
        },
        {
          "indexed": true,
          "internalType": "bytes32",
          "name": "tokenId",
          "type": "bytes32"
        },
        {
          "indexed": false,
          "internalType": "bool",
          "name": "allowNonLSP1Recipient",
          "type": "bool"
        },
        {
          "indexed": false,
          "internalType": "bytes",
          "name": "data",
          "type": "bytes"
        }
      ],
      "name": "Transfer",
      "type": "event"
    },
    {
      "inputs": [
        {
          "internalType": "address",
          "name": "operator",
          "type": "address"
        },
        {
          "internalType": "bytes32",
          "name": "tokenId",
          "type": "bytes32"
        }
      ],
      "name": "authorizeOperator",
      "outputs": [],
      "stateMutability": "nonpayable",
      "type": "function"
    },
    {
      "inputs": [
        {
          "internalType": "address",
          "name": "tokenOwner",
          "type": "address"
        }
      ],
      "name": "balanceOf",
      "outputs": [
        {
          "internalType": "uint256",
          "name": "",
          "type": "uint256"
        }
      ],
      "stateMutability": "view",
      "type": "function"
    },
    {
      "inputs": [
        {
          "internalType": "bytes32[]",
          "name": "dataKeys",
          "type": "bytes32[]"
        }
      ],
      "name": "getData",
      "outputs": [
        {
          "internalType": "bytes[]",
          "name": "dataValues",
          "type": "bytes[]"
        }
      ],
      "stateMutability": "view",
      "type": "function"
    },
    {
      "inputs": [
        {
          "internalType": "bytes32",
          "name": "dataKey",
          "type": "bytes32"
        }
      ],
      "name": "getData",
      "outputs": [
        {
          "internalType": "bytes",
          "name": "dataValue",
          "type": "bytes"
        }
      ],
      "stateMutability": "view",
      "type": "function"
    },
    {
      "inputs": [
        {
          "internalType": "bytes32",
          "name": "tokenId",
          "type": "bytes32"
        }
      ],
      "name": "getOperatorsOf",
      "outputs": [
        {
          "internalType": "address[]",
          "name": "",
          "type": "address[]"
        }
      ],
      "stateMutability": "view",
      "type": "function"
    },
    {
      "inputs": [
        {
          "internalType": "address",
          "name": "operator",
          "type": "address"
        },
        {
          "internalType": "bytes32",
          "name": "tokenId",
          "type": "bytes32"
        }
      ],
      "name": "isOperatorFor",
      "outputs": [
        {
          "internalType": "bool",
          "name": "",
          "type": "bool"
        }
      ],
      "stateMutability": "view",
      "type": "function"
    },
    {
      "inputs": [
        {
          "internalType": "address",
          "name": "to",
          "type": "address"
        },
        {
          "internalType": "bytes32",
          "name": "tokenId",
          "type": "bytes32"
        },
        {
          "internalType": "bool",
          "name": "allowNonLSP1Recipient",
          "type": "bool"
        },
        {
          "internalType": "bytes",
          "name": "data",
          "type": "bytes"
        }
      ],
      "name": "mint",
      "outputs": [],
      "stateMutability": "nonpayable",
      "type": "function"
    },
    {
      "inputs": [],
      "name": "owner",
      "outputs": [
        {
          "internalType": "address",
          "name": "",
          "type": "address"
        }
      ],
      "stateMutability": "view",
      "type": "function"
    },
    {
      "inputs": [],
      "name": "renounceOwnership",
      "outputs": [],
      "stateMutability": "nonpayable",
      "type": "function"
    },
    {
      "inputs": [
        {
          "internalType": "address",
          "name": "operator",
          "type": "address"
        },
        {
          "internalType": "bytes32",
          "name": "tokenId",
          "type": "bytes32"
        }
      ],
      "name": "revokeOperator",
      "outputs": [],
      "stateMutability": "nonpayable",
      "type": "function"
    },
    {
      "inputs": [
        {
          "internalType": "bytes32[]",
          "name": "dataKeys",
          "type": "bytes32[]"
        },
        {
          "internalType": "bytes[]",
          "name": "dataValues",
          "type": "bytes[]"
        }
      ],
      "name": "setData",
      "outputs": [],
      "stateMutability": "nonpayable",
      "type": "function"
    },
    {
      "inputs": [
        {
          "internalType": "bytes32",
          "name": "dataKey",
          "type": "bytes32"
        },
        {
          "internalType": "bytes",
          "name": "dataValue",
          "type": "bytes"
        }
      ],
      "name": "setData",
      "outputs": [],
      "stateMutability": "nonpayable",
      "type": "function"
    },
    {
      "inputs": [
        {
          "internalType": "bytes4",
          "name": "interfaceId",
          "type": "bytes4"
        }
      ],
      "name": "supportsInterface",
      "outputs": [
        {
          "internalType": "bool",
          "name": "",
          "type": "bool"
        }
      ],
      "stateMutability": "view",
      "type": "function"
    },
    {
      "inputs": [
        {
          "internalType": "address",
          "name": "tokenOwner",
          "type": "address"
        }
      ],
      "name": "tokenIdsOf",
      "outputs": [
        {
          "internalType": "bytes32[]",
          "name": "",
          "type": "bytes32[]"
        }
      ],
      "stateMutability": "view",
      "type": "function"
    },
    {
      "inputs": [
        {
          "internalType": "bytes32",
          "name": "tokenId",
          "type": "bytes32"
        }
      ],
      "name": "tokenOwnerOf",
      "outputs": [
        {
          "internalType": "address",
          "name": "",
          "type": "address"
        }
      ],
      "stateMutability": "view",
      "type": "function"
    },
    {
      "inputs": [],
      "name": "totalSupply",
      "outputs": [
        {
          "internalType": "uint256",
          "name": "",
          "type": "uint256"
        }
      ],
      "stateMutability": "view",
      "type": "function"
    },
    {
      "inputs": [
        {
          "internalType": "address",
          "name": "from",
          "type": "address"
        },
        {
          "internalType": "address",
          "name": "to",
          "type": "address"
        },
        {
          "internalType": "bytes32",
          "name": "tokenId",
          "type": "bytes32"
        },
        {
          "internalType": "bool",
          "name": "allowNonLSP1Recipient",
          "type": "bool"
        },
        {
          "internalType": "bytes",
          "name": "data",
          "type": "bytes"
        }
      ],
      "name": "transfer",
      "outputs": [],
      "stateMutability": "nonpayable",
      "type": "function"
    },
    {
      "inputs": [
        {
          "internalType": "address[]",
          "name": "from",
          "type": "address[]"
        },
        {
          "internalType": "address[]",
          "name": "to",
          "type": "address[]"
        },
        {
          "internalType": "bytes32[]",
          "name": "tokenId",
          "type": "bytes32[]"
        },
        {
          "internalType": "bool[]",
          "name": "allowNonLSP1Recipient",
          "type": "bool[]"
        },
        {
          "internalType": "bytes[]",
          "name": "data",
          "type": "bytes[]"
        }
      ],
      "name": "transferBatch",
      "outputs": [],
      "stateMutability": "nonpayable",
      "type": "function"
    },
    {
      "inputs": [
        {
          "internalType": "address",
          "name": "newOwner",
          "type": "address"
        }
      ],
      "name": "transferOwnership",
      "outputs": [],
      "stateMutability": "nonpayable",
      "type": "function"
    }
  ],
  "bytecode": "0x60806040523480156200001157600080fd5b506040516200270b3803806200270b83398101604081905262000034916200032f565b828282828282806001600160a01b038116620000a55760405162461bcd60e51b815260206004820152602660248201527f4f776e61626c653a206e6577206f776e657220697320746865207a65726f206160448201526564647265737360d01b606482015260840160405180910390fd5b620000bb816200019560201b620009c41760201c565b50620001127feafec4d89fa9619884b60000a4d96624a38f7ac2d8d9a604ecf07c12c77e480c60001b604051806040016040528060048152602001632936598960e21b815250620001fc60201b62000a361760201c565b6200014c7fdeba1e292f8ba88238e10ab3c7f88bd4be4fac56cad5194b6ecceaf653468af160001b84620001fc60201b62000a361760201c565b620001867f2f0a68ab07768e01943a599e73362a0e17a63a72e94dd2e384d2c1d4db93275660001b83620001fc60201b62000a361760201c565b5050505050505050506200054c565b6000546001600160a01b03828116911614620001f957600080546001600160a01b038381166001600160a01b0319831681178455604051919092169283917f8be0079c531659141344cd1fd0a4f28419497f9722a3daafe3b4186f6b6457e09190a3505b50565b60008281526001602052604090206200021682826200044b565b50817fece574603820d07bc9b91f2a932baadf4628aabcb8afba49776529c14a6104b28260405162000249919062000517565b60405180910390a25050565b634e487b7160e01b600052604160045260246000fd5b60005b83811015620002885781810151838201526020016200026e565b8381111562000298576000848401525b50505050565b600082601f830112620002b057600080fd5b81516001600160401b0380821115620002cd57620002cd62000255565b604051601f8301601f19908116603f01168101908282118183101715620002f857620002f862000255565b816040528381528660208588010111156200031257600080fd5b620003258460208301602089016200026b565b9695505050505050565b6000806000606084860312156200034557600080fd5b83516001600160401b03808211156200035d57600080fd5b6200036b878388016200029e565b945060208601519150808211156200038257600080fd5b5062000391868287016200029e565b604086015190935090506001600160a01b0381168114620003b157600080fd5b809150509250925092565b600181811c90821680620003d157607f821691505b602082108103620003f257634e487b7160e01b600052602260045260246000fd5b50919050565b601f8211156200044657600081815260208120601f850160051c81016020861015620004215750805b601f850160051c820191505b8181101562000442578281556001016200042d565b5050505b505050565b81516001600160401b0381111562000467576200046762000255565b6200047f81620004788454620003bc565b84620003f8565b602080601f831160018114620004b757600084156200049e5750858301515b600019600386901b1c1916600185901b17855562000442565b600085815260208120601f198616915b82811015620004e857888601518255948401946001909101908401620004c7565b5085821015620005075787850151600019600388901b60f8161c191681555b5050505050600190811b01905550565b6020815260008251806020840152620005388160408501602087016200026b565b601f01601f19169190910160400192915050565b6121af806200055c6000396000f3fe608060405234801561001057600080fd5b50600436106101515760003560e01c806354f6127f116100cd5780638da5cb5b11610081578063af255b6111610066578063af255b61146102db578063cf5182ba146102ee578063f2fde38b1461030157600080fd5b80638da5cb5b146102aa578063a3b261f2146102bb57600080fd5b8063715018a6116100b2578063715018a61461027c5780637e87632c146102845780637f23690c1461029757600080fd5b806354f6127f1461024957806370a082311461026957600080fd5b8063217b22701161012457806349a6078d1161010957806349a6078d146101f65780634e3e6e9c14610216578063511b69521461023657600080fd5b8063217b2270146101b85780632a3654a4146101e357600080fd5b806301ffc9a7146101565780630b0c6d821461017e57806314a6e2931461019357806318160ddd146101a6575b600080fd5b6101696101643660046117b2565b610314565b60405190151581526020015b60405180910390f35b61019161018c3660046117f8565b610358565b005b6101916101a13660046119f1565b610414565b6002545b604051908152602001610175565b6101cb6101c6366004611a55565b6104b4565b6040516001600160a01b039091168152602001610175565b6101696101f13660046117f8565b6104ed565b610209610204366004611a55565b610509565b6040516101759190611a6e565b610229610224366004611abb565b61052b565b6040516101759190611b48565b610191610244366004611bba565b6105df565b61025c610257366004611a55565b610647565b6040516101759190611c33565b6101aa610277366004611c46565b610652565b610191610673565b610191610292366004611d25565b610687565b6101916102a5366004611dea565b61078f565b6000546001600160a01b03166101cb565b6102ce6102c9366004611c46565b6107a5565b6040516101759190611e27565b6101916102e9366004611e5f565b6107c9565b6101916102fc3660046117f8565b6107e3565b61019161030f366004611c46565b610934565b60006001600160e01b031982167f622e7a01000000000000000000000000000000000000000000000000000000001480610352575061035282610a8b565b92915050565b6000610363826104b4565b90506001600160a01b03811633146103ab57604051632d938f5160e11b81526001600160a01b0382166004820152602481018390523360448201526064015b60405180910390fd5b6001600160a01b0383166103d257604051639577b8b360e01b815260040160405180910390fd5b826001600160a01b0316816001600160a01b031603610404576040516344fed6b160e11b815260040160405180910390fd5b61040f838284610ad9565b505050565b61041c610b83565b805182511461046457815181516040517f43a3c266000000000000000000000000000000000000000000000000000000008152600481019290925260248201526044016103a2565b60005b825181101561040f576104ac83828151811061048557610485611ec7565b602002602001015183838151811061049f5761049f611ec7565b6020026020010151610bec565b600101610467565b6000818152600360205260408120546001600160a01b03168061035257604051635747cd1b60e11b8152600481018490526024016103a2565b60006104f882610d06565b6105028383610d3e565b9392505050565b606061051482610d06565b600082815260056020526040902061035290610d87565b6060815167ffffffffffffffff81111561054757610547611822565b60405190808252806020026020018201604052801561057a57816020015b60608152602001906001900390816105655790505b50905060005b82518110156105d9576105ab83828151811061059e5761059e611ec7565b6020026020010151610d94565b8282815181106105bd576105bd611ec7565b60200260200101819052506105d28160010190565b9050610580565b50919050565b336105ea8185610d3e565b610632576040517f1294d2a9000000000000000000000000000000000000000000000000000000008152600481018590526001600160a01b03821660248201526044016103a2565b61063f8686868686610e36565b505050505050565b606061035282610d94565b6001600160a01b038116600090815260046020526040812061035290610fe6565b61067b610b83565b61068560006109c4565b565b845184518114158061069a575083518114155b806106a6575082518114155b806106b2575081518114155b156106e9576040517f93a8311900000000000000000000000000000000000000000000000000000000815260040160405180910390fd5b60005b818110156107865761077e87828151811061070957610709611ec7565b602002602001015187838151811061072357610723611ec7565b602002602001015187848151811061073d5761073d611ec7565b602002602001015187858151811061075757610757611ec7565b602002602001015187868151811061077157610771611ec7565b60200260200101516105df565b6001016106ec565b50505050505050565b610797610b83565b6107a18282610bec565b5050565b6001600160a01b038116600090815260046020526040902060609061035290610d87565b6107d1610b83565b6107dd84848484610ff0565b50505050565b60006107ee826104b4565b90506001600160a01b038116331461083157604051632d938f5160e11b81526001600160a01b0382166004820152602481018390523360448201526064016103a2565b6001600160a01b03831661085857604051639577b8b360e01b815260040160405180910390fd5b826001600160a01b0316816001600160a01b03160361088a576040516344fed6b160e11b815260040160405180910390fd5b60008281526005602052604081206108a29085611130565b9050806108ed576040517fa7626b680000000000000000000000000000000000000000000000000000000081526001600160a01b0385166004820152602481018490526044016103a2565b82826001600160a01b0316856001600160a01b03167f34b797fc5a526f7bf1d2b5de25f6564fd85ae364e3ee939aee7c1ac27871a98860405160405180910390a450505050565b61093c610b83565b6001600160a01b0381166109b85760405162461bcd60e51b815260206004820152602660248201527f4f776e61626c653a206e6577206f776e657220697320746865207a65726f206160448201527f646472657373000000000000000000000000000000000000000000000000000060648201526084016103a2565b6109c1816109c4565b50565b6000546001600160a01b038281169116146109c157600080546001600160a01b0383811673ffffffffffffffffffffffffffffffffffffffff19831681178455604051919092169283917f8be0079c531659141344cd1fd0a4f28419497f9722a3daafe3b4186f6b6457e09190a35050565b6000828152600160205260409020610a4e8282611f57565b50817fece574603820d07bc9b91f2a932baadf4628aabcb8afba49776529c14a6104b282604051610a7f9190611c33565b60405180910390a25050565b60006001600160e01b031982167f714df77c00000000000000000000000000000000000000000000000000000000148061035257506301ffc9a760e01b6001600160e01b0319831614610352565b6000818152600560205260408120610af19085611145565b905080610b3c576040517f4aa31a8c0000000000000000000000000000000000000000000000000000000081526001600160a01b0385166004820152602481018390526044016103a2565b81836001600160a01b0316856001600160a01b03167f17d5389f6ab6adb2647dfa0aa365c323d37adacc30b33a65310b6158ce1373d560405160405180910390a450505050565b33610b966000546001600160a01b031690565b6001600160a01b0316146106855760405162461bcd60e51b815260206004820181905260248201527f4f776e61626c653a2063616c6c6572206973206e6f7420746865206f776e657260448201526064016103a2565b7f2145e1d6d074577dc71ef54c3807742b41b053a9352ae6b491331509acb9750f8201610c45576040517f85c169bd00000000000000000000000000000000000000000000000000000000815260040160405180910390fd5b7fd0f59754f88971fe6bc5a6618cc9d5f1e859c58d16b22d1c7b2d3e2b246cd8aa8201610c9e576040517f76755b3800000000000000000000000000000000000000000000000000000000815260040160405180910390fd5b6000828152600160205260409020610cb68282611f57565b50817fece574603820d07bc9b91f2a932baadf4628aabcb8afba49776529c14a6104b261010083511115610cf757610cf283600061010061115a565b610cf9565b825b604051610a7f9190611c33565b6000818152600360205260409020546001600160a01b03166109c157604051635747cd1b60e11b8152600481018290526024016103a2565b600080610d4a836104b4565b9050806001600160a01b0316846001600160a01b03161480610d7f57506000838152600560205260409020610d7f9085611282565b949350505050565b60606000610502836112a4565b6000818152600160205260409020805460609190610db190611edd565b80601f0160208091040260200160405190810160405280929190818152602001828054610ddd90611edd565b8015610e2a5780601f10610dff57610100808354040283529160200191610e2a565b820191906000526020600020905b815481529060010190602001808311610e0d57829003601f168201915b50505050509050919050565b836001600160a01b0316856001600160a01b031603610e81576040517f5d67d6c100000000000000000000000000000000000000000000000000000000815260040160405180910390fd5b6000610e8c846104b4565b9050856001600160a01b0316816001600160a01b031614610eda57604051632d938f5160e11b81526001600160a01b03808316600483015260248201869052871660448201526064016103a2565b6001600160a01b038516610f01576040516324ecef4d60e01b815260040160405180910390fd5b33610f0c87866112ff565b6001600160a01b0387166000908152600460205260409020610f2e9086611346565b506001600160a01b0386166000908152600460205260409020610f519086611352565b5060008581526003602052604090819020805473ffffffffffffffffffffffffffffffffffffffff19166001600160a01b0389811691821790925591518792918a16907fb333c813a7426a7a11e2b190cad52c44119421594b47f6f32ace6d8c7207b2bf90610fc59086908a908a90612017565b60405180910390a4610fd98787878661135e565b6107868787878787611432565b6000610352825490565b6001600160a01b038416611017576040516324ecef4d60e01b815260040160405180910390fd5b6000838152600360205260409020546001600160a01b031615611069576040517f34c7b511000000000000000000000000000000000000000000000000000000008152600481018490526024016103a2565b3360016002600082825461107d9190612060565b90915550506001600160a01b03851660009081526004602052604090206110a49085611352565b50600084815260036020526040808220805473ffffffffffffffffffffffffffffffffffffffff19166001600160a01b03891690811790915590518692907fb333c813a7426a7a11e2b190cad52c44119421594b47f6f32ace6d8c7207b2bf9061111390869089908990612017565b60405180910390a4611129600086868686611432565b5050505050565b6000610502836001600160a01b03841661159c565b6000610502836001600160a01b0384166115eb565b60608161116881601f612060565b10156111b65760405162461bcd60e51b815260206004820152600e60248201527f736c6963655f6f766572666c6f7700000000000000000000000000000000000060448201526064016103a2565b6111c08284612060565b845110156112105760405162461bcd60e51b815260206004820152601160248201527f736c6963655f6f75744f66426f756e647300000000000000000000000000000060448201526064016103a2565b60608215801561122f5760405191506000825260208201604052611279565b6040519150601f8416801560200281840101858101878315602002848b0101015b81831015611268578051835260209283019201611250565b5050858452601f01601f1916604052505b50949350505050565b6001600160a01b03811660009081526001830160205260408120541515610502565b606081600001805480602002602001604051908101604052809291908181526020018280548015610e2a57602002820191906000526020600020905b8154815260200190600101908083116112e05750505050509050919050565b60008181526005602052604081209061131782610fe6565b905060005b8181101561112957600061133084826116de565b905061133d818787610ad9565b5060010161131c565b600061050283836115eb565b6000610502838361159c565b61136f84631aed5a8560e21b6116ea565b156107dd5760008484848460405160200161138d9493929190612078565b60408051601f1981840301815290829052631aed5a8560e21b825291506001600160a01b03861690636bb56a14906113eb907fb23eae7e6d1564b295b4c3e3be402d9a2f0776c57bdf365903496f6fa481ab009085906004016120c5565b6000604051808303816000875af115801561140a573d6000803e3d6000fd5b505050506040513d6000823e601f3d908101601f1916820160405261063f91908101906120de565b61144384631aed5a8560e21b6116ea565b1561150d576000858585846040516020016114619493929190612078565b60408051601f1981840301815290829052631aed5a8560e21b825291506001600160a01b03861690636bb56a14906114bf907f0b084a55ebf70fd3c06fd755269dac2212c4d3f0f4d09079780bfa50c1b2984d9085906004016120c5565b6000604051808303816000875af11580156114de573d6000803e3d6000fd5b505050506040513d6000823e601f3d908101601f1916820160405261150691908101906120de565b5050611129565b81611129576001600160a01b0384163b1561155f576040517f4349776d0000000000000000000000000000000000000000000000000000000081526001600160a01b03851660048201526024016103a2565b6040517f031731370000000000000000000000000000000000000000000000000000000081526001600160a01b03851660048201526024016103a2565b60008181526001830160205260408120546115e357508154600181810184556000848152602080822090930184905584548482528286019093526040902091909155610352565b506000610352565b600081815260018301602052604081205480156116d457600061160f60018361214c565b85549091506000906116239060019061214c565b905081811461168857600086600001828154811061164357611643611ec7565b906000526020600020015490508087600001848154811061166657611666611ec7565b6000918252602080832090910192909255918252600188019052604090208390555b855486908061169957611699612163565b600190038181906000526020600020016000905590558560010160008681526020019081526020016000206000905560019350505050610352565b6000915050610352565b60006105028383611788565b604080516001600160e01b03198316602480830191909152825180830390910181526044909101909152602080820180517bffffffffffffffffffffffffffffffffffffffffffffffffffffffff166301ffc9a760e01b178152825160009392849283928392918391908a617530fa92503d91506000519050828015611771575060208210155b801561177d5750600081115b979650505050505050565b600082600001828154811061179f5761179f611ec7565b9060005260206000200154905092915050565b6000602082840312156117c457600080fd5b81356001600160e01b03198116811461050257600080fd5b80356001600160a01b03811681146117f357600080fd5b919050565b6000806040838503121561180b57600080fd5b611814836117dc565b946020939093013593505050565b634e487b7160e01b600052604160045260246000fd5b604051601f8201601f1916810167ffffffffffffffff8111828210171561186157611861611822565b604052919050565b600067ffffffffffffffff82111561188357611883611822565b5060051b60200190565b600082601f83011261189e57600080fd5b813560206118b36118ae83611869565b611838565b82815260059290921b840181019181810190868411156118d257600080fd5b8286015b848110156118ed57803583529183019183016118d6565b509695505050505050565b600067ffffffffffffffff82111561191257611912611822565b50601f01601f191660200190565b600082601f83011261193157600080fd5b813561193f6118ae826118f8565b81815284602083860101111561195457600080fd5b816020850160208301376000918101602001919091529392505050565b600082601f83011261198257600080fd5b813560206119926118ae83611869565b82815260059290921b840181019181810190868411156119b157600080fd5b8286015b848110156118ed57803567ffffffffffffffff8111156119d55760008081fd5b6119e38986838b0101611920565b8452509183019183016119b5565b60008060408385031215611a0457600080fd5b823567ffffffffffffffff80821115611a1c57600080fd5b611a288683870161188d565b93506020850135915080821115611a3e57600080fd5b50611a4b85828601611971565b9150509250929050565b600060208284031215611a6757600080fd5b5035919050565b6020808252825182820181905260009190848201906040850190845b81811015611aaf5783516001600160a01b031683529284019291840191600101611a8a565b50909695505050505050565b600060208284031215611acd57600080fd5b813567ffffffffffffffff811115611ae457600080fd5b610d7f8482850161188d565b60005b83811015611b0b578181015183820152602001611af3565b838111156107dd5750506000910152565b60008151808452611b34816020860160208601611af0565b601f01601f19169290920160200192915050565b6000602080830181845280855180835260408601915060408160051b870101925083870160005b82811015611b9d57603f19888603018452611b8b858351611b1c565b94509285019290850190600101611b6f565b5092979650505050505050565b803580151581146117f357600080fd5b600080600080600060a08688031215611bd257600080fd5b611bdb866117dc565b9450611be9602087016117dc565b935060408601359250611bfe60608701611baa565b9150608086013567ffffffffffffffff811115611c1a57600080fd5b611c2688828901611920565b9150509295509295909350565b6020815260006105026020830184611b1c565b600060208284031215611c5857600080fd5b610502826117dc565b600082601f830112611c7257600080fd5b81356020611c826118ae83611869565b82815260059290921b84018101918181019086841115611ca157600080fd5b8286015b848110156118ed57611cb6816117dc565b8352918301918301611ca5565b600082601f830112611cd457600080fd5b81356020611ce46118ae83611869565b82815260059290921b84018101918181019086841115611d0357600080fd5b8286015b848110156118ed57611d1881611baa565b8352918301918301611d07565b600080600080600060a08688031215611d3d57600080fd5b853567ffffffffffffffff80821115611d5557600080fd5b611d6189838a01611c61565b96506020880135915080821115611d7757600080fd5b611d8389838a01611c61565b95506040880135915080821115611d9957600080fd5b611da589838a0161188d565b94506060880135915080821115611dbb57600080fd5b611dc789838a01611cc3565b93506080880135915080821115611ddd57600080fd5b50611c2688828901611971565b60008060408385031215611dfd57600080fd5b82359150602083013567ffffffffffffffff811115611e1b57600080fd5b611a4b85828601611920565b6020808252825182820181905260009190848201906040850190845b81811015611aaf57835183529284019291840191600101611e43565b60008060008060808587031215611e7557600080fd5b611e7e856117dc565b935060208501359250611e9360408601611baa565b9150606085013567ffffffffffffffff811115611eaf57600080fd5b611ebb87828801611920565b91505092959194509250565b634e487b7160e01b600052603260045260246000fd5b600181811c90821680611ef157607f821691505b6020821081036105d957634e487b7160e01b600052602260045260246000fd5b601f82111561040f57600081815260208120601f850160051c81016020861015611f385750805b601f850160051c820191505b8181101561063f57828155600101611f44565b815167ffffffffffffffff811115611f7157611f71611822565b611f8581611f7f8454611edd565b84611f11565b602080601f831160018114611fba5760008415611fa25750858301515b600019600386901b1c1916600185901b17855561063f565b600085815260208120601f198616915b82811015611fe957888601518255948401946001909101908401611fca565b50858210156120075787850151600019600388901b60f8161c191681555b5050505050600190811b01905550565b6001600160a01b038416815282151560208201526060604082015260006120416060830184611b1c565b95945050505050565b634e487b7160e01b600052601160045260246000fd5b600082198211156120735761207361204a565b500190565b60006bffffffffffffffffffffffff19808760601b168352808660601b1660148401525083602883015282516120b5816048850160208701611af0565b9190910160480195945050505050565b828152604060208201526000610d7f6040830184611b1c565b6000602082840312156120f057600080fd5b815167ffffffffffffffff81111561210757600080fd5b8201601f8101841361211857600080fd5b80516121266118ae826118f8565b81815285602083850101111561213b57600080fd5b612041826020830160208601611af0565b60008282101561215e5761215e61204a565b500390565b634e487b7160e01b600052603160045260246000fdfea26469706673582212202146cd2b5cd5a84603268c4bce78e9bddc877ab05aa262df78a05e515ec6e07464736f6c634300080f0033",
  "linkReferences": {},
  "deployedLinkReferences": {}
}