{
  "_format": "hh-sol-artifact-1",
  "contractName": "UniversalProfile",
  "sourceName": "contracts/UniversalProfile.sol",
  "abi": [
    {
      "inputs": [
        {
          "internalType": "address",
          "name": "newOwner",
          "type": "address"
        }
      ],
      "stateMutability": "payable",
      "type": "constructor"
    },
    {
      "inputs": [],
      "name": "CannotTransferOwnershipToSelf",
      "type": "error"
    },
    {
      "inputs": [],
      "name": "ERC725X_ContractDeploymentFailed",
      "type": "error"
    },
    {
      "inputs": [],
      "name": "ERC725X_CreateOperationsRequireEmptyRecipientAddress",
      "type": "error"
    },
    {
      "inputs": [],
      "name": "ERC725X_ExecuteParametersLengthMismatch",
      "type": "error"
    },
    {
      "inputs": [
        {
          "internalType": "uint256",
          "name": "balance",
          "type": "uint256"
        },
        {
          "internalType": "uint256",
          "name": "value",
          "type": "uint256"
        }
      ],
      "name": "ERC725X_InsufficientBalance",
      "type": "error"
    },
    {
      "inputs": [],
      "name": "ERC725X_MsgValueDisallowedInDelegateCall",
      "type": "error"
    },
    {
      "inputs": [],
      "name": "ERC725X_MsgValueDisallowedInStaticCall",
      "type": "error"
    },
    {
      "inputs": [],
      "name": "ERC725X_NoContractBytecodeProvided",
      "type": "error"
    },
    {
      "inputs": [
        {
          "internalType": "uint256",
          "name": "operationTypeProvided",
          "type": "uint256"
        }
      ],
      "name": "ERC725X_UnknownOperationType",
      "type": "error"
    },
    {
      "inputs": [
        {
          "internalType": "uint256",
          "name": "dataKeysLength",
          "type": "uint256"
        },
        {
          "internalType": "uint256",
          "name": "dataValuesLength",
          "type": "uint256"
        }
      ],
      "name": "ERC725Y_DataKeysValuesLengthMismatch",
      "type": "error"
    },
    {
      "inputs": [
        {
          "internalType": "bytes4",
          "name": "functionSelector",
          "type": "bytes4"
        }
      ],
      "name": "NoExtensionFoundForFunctionSelector",
      "type": "error"
    },
    {
      "inputs": [
        {
          "internalType": "uint256",
          "name": "renounceOwnershipStart",
          "type": "uint256"
        },
        {
          "internalType": "uint256",
          "name": "renounceOwnershipEnd",
          "type": "uint256"
        }
      ],
      "name": "NotInRenounceOwnershipInterval",
      "type": "error"
    },
    {
      "anonymous": false,
      "inputs": [
        {
          "indexed": true,
          "internalType": "uint256",
          "name": "operationType",
          "type": "uint256"
        },
        {
          "indexed": true,
          "internalType": "address",
          "name": "contractAddress",
          "type": "address"
        },
        {
          "indexed": true,
          "internalType": "uint256",
          "name": "value",
          "type": "uint256"
        },
        {
          "indexed": false,
          "internalType": "bytes32",
          "name": "salt",
          "type": "bytes32"
        }
      ],
      "name": "ContractCreated",
      "type": "event"
    },
    {
      "anonymous": false,
      "inputs": [
        {
          "indexed": true,
          "internalType": "bytes32",
          "name": "dataKey",
          "type": "bytes32"
        },
        {
          "indexed": false,
          "internalType": "bytes",
          "name": "dataValue",
          "type": "bytes"
        }
      ],
      "name": "DataChanged",
      "type": "event"
    },
    {
      "anonymous": false,
      "inputs": [
        {
          "indexed": true,
          "internalType": "uint256",
          "name": "operationType",
          "type": "uint256"
        },
        {
          "indexed": true,
          "internalType": "address",
          "name": "target",
          "type": "address"
        },
        {
          "indexed": true,
          "internalType": "uint256",
          "name": "value",
          "type": "uint256"
        },
        {
          "indexed": false,
          "internalType": "bytes4",
          "name": "selector",
          "type": "bytes4"
        }
      ],
      "name": "Executed",
      "type": "event"
    },
    {
      "anonymous": false,
      "inputs": [],
      "name": "OwnershipRenounced",
      "type": "event"
    },
    {
      "anonymous": false,
      "inputs": [
        {
          "indexed": true,
          "internalType": "address",
          "name": "previousOwner",
          "type": "address"
        },
        {
          "indexed": true,
          "internalType": "address",
          "name": "newOwner",
          "type": "address"
        }
      ],
      "name": "OwnershipTransferStarted",
      "type": "event"
    },
    {
      "anonymous": false,
      "inputs": [
        {
          "indexed": true,
          "internalType": "address",
          "name": "previousOwner",
          "type": "address"
        },
        {
          "indexed": true,
          "internalType": "address",
          "name": "newOwner",
          "type": "address"
        }
      ],
      "name": "OwnershipTransferred",
      "type": "event"
    },
    {
      "anonymous": false,
      "inputs": [],
      "name": "RenounceOwnershipStarted",
      "type": "event"
    },
    {
      "anonymous": false,
      "inputs": [
        {
          "indexed": true,
          "internalType": "address",
          "name": "from",
          "type": "address"
        },
        {
          "indexed": true,
          "internalType": "uint256",
          "name": "value",
          "type": "uint256"
        },
        {
          "indexed": true,
          "internalType": "bytes32",
          "name": "typeId",
          "type": "bytes32"
        },
        {
          "indexed": false,
          "internalType": "bytes",
          "name": "receivedData",
          "type": "bytes"
        },
        {
          "indexed": false,
          "internalType": "bytes",
          "name": "returnedValue",
          "type": "bytes"
        }
      ],
      "name": "UniversalReceiver",
      "type": "event"
    },
    {
      "anonymous": false,
      "inputs": [
        {
          "indexed": true,
          "internalType": "address",
          "name": "sender",
          "type": "address"
        },
        {
          "indexed": true,
          "internalType": "uint256",
          "name": "value",
          "type": "uint256"
        }
      ],
      "name": "ValueReceived",
      "type": "event"
    },
    {
      "stateMutability": "payable",
      "type": "fallback"
    },
    {
      "inputs": [],
      "name": "RENOUNCE_OWNERSHIP_CONFIRMATION_DELAY",
      "outputs": [
        {
          "internalType": "uint256",
          "name": "",
          "type": "uint256"
        }
      ],
      "stateMutability": "view",
      "type": "function"
    },
    {
      "inputs": [],
      "name": "RENOUNCE_OWNERSHIP_CONFIRMATION_PERIOD",
      "outputs": [
        {
          "internalType": "uint256",
          "name": "",
          "type": "uint256"
        }
      ],
      "stateMutability": "view",
      "type": "function"
    },
    {
      "inputs": [],
      "name": "acceptOwnership",
      "outputs": [],
      "stateMutability": "nonpayable",
      "type": "function"
    },
    {
      "inputs": [
        {
          "internalType": "uint256[]",
          "name": "operationsType",
          "type": "uint256[]"
        },
        {
          "internalType": "address[]",
          "name": "targets",
          "type": "address[]"
        },
        {
          "internalType": "uint256[]",
          "name": "values",
          "type": "uint256[]"
        },
        {
          "internalType": "bytes[]",
          "name": "datas",
          "type": "bytes[]"
        }
      ],
      "name": "execute",
      "outputs": [
        {
          "internalType": "bytes[]",
          "name": "",
          "type": "bytes[]"
        }
      ],
      "stateMutability": "payable",
      "type": "function"
    },
    {
      "inputs": [
        {
          "internalType": "uint256",
          "name": "operationType",
          "type": "uint256"
        },
        {
          "internalType": "address",
          "name": "target",
          "type": "address"
        },
        {
          "internalType": "uint256",
          "name": "value",
          "type": "uint256"
        },
        {
          "internalType": "bytes",
          "name": "data",
          "type": "bytes"
        }
      ],
      "name": "execute",
      "outputs": [
        {
          "internalType": "bytes",
          "name": "",
          "type": "bytes"
        }
      ],
      "stateMutability": "payable",
      "type": "function"
    },
    {
      "inputs": [
        {
          "internalType": "bytes32[]",
          "name": "dataKeys",
          "type": "bytes32[]"
        }
      ],
      "name": "getData",
      "outputs": [
        {
          "internalType": "bytes[]",
          "name": "dataValues",
          "type": "bytes[]"
        }
      ],
      "stateMutability": "view",
      "type": "function"
    },
    {
      "inputs": [
        {
          "internalType": "bytes32",
          "name": "dataKey",
          "type": "bytes32"
        }
      ],
      "name": "getData",
      "outputs": [
        {
          "internalType": "bytes",
          "name": "dataValue",
          "type": "bytes"
        }
      ],
      "stateMutability": "view",
      "type": "function"
    },
    {
      "inputs": [
        {
          "internalType": "bytes32",
          "name": "dataHash",
          "type": "bytes32"
        },
        {
          "internalType": "bytes",
          "name": "signature",
          "type": "bytes"
        }
      ],
      "name": "isValidSignature",
      "outputs": [
        {
          "internalType": "bytes4",
          "name": "magicValue",
          "type": "bytes4"
        }
      ],
      "stateMutability": "view",
      "type": "function"
    },
    {
      "inputs": [],
      "name": "owner",
      "outputs": [
        {
          "internalType": "address",
          "name": "",
          "type": "address"
        }
      ],
      "stateMutability": "view",
      "type": "function"
    },
    {
      "inputs": [],
      "name": "pendingOwner",
      "outputs": [
        {
          "internalType": "address",
          "name": "",
          "type": "address"
        }
      ],
      "stateMutability": "view",
      "type": "function"
    },
    {
      "inputs": [],
      "name": "renounceOwnership",
      "outputs": [],
      "stateMutability": "nonpayable",
      "type": "function"
    },
    {
      "inputs": [
        {
          "internalType": "bytes32[]",
          "name": "dataKeys",
          "type": "bytes32[]"
        },
        {
          "internalType": "bytes[]",
          "name": "dataValues",
          "type": "bytes[]"
        }
      ],
      "name": "setData",
      "outputs": [],
      "stateMutability": "nonpayable",
      "type": "function"
    },
    {
      "inputs": [
        {
          "internalType": "bytes32",
          "name": "dataKey",
          "type": "bytes32"
        },
        {
          "internalType": "bytes",
          "name": "dataValue",
          "type": "bytes"
        }
      ],
      "name": "setData",
      "outputs": [],
      "stateMutability": "nonpayable",
      "type": "function"
    },
    {
      "inputs": [
        {
          "internalType": "bytes4",
          "name": "interfaceId",
          "type": "bytes4"
        }
      ],
      "name": "supportsInterface",
      "outputs": [
        {
          "internalType": "bool",
          "name": "",
          "type": "bool"
        }
      ],
      "stateMutability": "view",
      "type": "function"
    },
    {
      "inputs": [
        {
          "internalType": "address",
          "name": "_newOwner",
          "type": "address"
        }
      ],
      "name": "transferOwnership",
      "outputs": [],
      "stateMutability": "nonpayable",
      "type": "function"
    },
    {
      "inputs": [
        {
          "internalType": "bytes32",
          "name": "typeId",
          "type": "bytes32"
        },
        {
          "internalType": "bytes",
          "name": "receivedData",
          "type": "bytes"
        }
      ],
      "name": "universalReceiver",
      "outputs": [
        {
          "internalType": "bytes",
          "name": "returnedValues",
          "type": "bytes"
        }
      ],
      "stateMutability": "payable",
      "type": "function"
    },
    {
      "stateMutability": "payable",
      "type": "receive"
    }
  ],
  "bytecode": "0x608060405260405162003044380380620030448339810160408190526200002691620002cd565b8034156200005c57604051349033907f7e71433ddf847725166244795048ecf3e3f9f35628254ecbf73605666423349390600090a35b6200007281620000c260201b62000a651760201c565b5060408051808201909152600481526355f212eb60e11b6020820152620000bb907feafec4d89fa9619884b60000abe425d64acd861a49b8ddf5c0b6962110481f389062000129565b50620004ef565b6000546001600160a01b038281169116146200012657600080546001600160a01b038381166001600160a01b0319831681178455604051919092169283917f8be0079c531659141344cd1fd0a4f28419497f9722a3daafe3b4186f6b6457e09190a3505b50565b6000828152600160205260409020620001438282620003a4565b50817fece574603820d07bc9b91f2a932baadf4628aabcb8afba49776529c14a6104b26101008351111562000193576200018d836000610100620001b060201b62000aca1760201c565b62000195565b825b604051620001a4919062000470565b60405180910390a25050565b606081620001c081601f620004c8565b1015620002055760405162461bcd60e51b815260206004820152600e60248201526d736c6963655f6f766572666c6f7760901b60448201526064015b60405180910390fd5b620002118284620004c8565b84511015620002575760405162461bcd60e51b8152602060048201526011602482015270736c6963655f6f75744f66426f756e647360781b6044820152606401620001fc565b606082158015620002785760405191506000825260208201604052620002c4565b6040519150601f8416801560200281840101858101878315602002848b0101015b81831015620002b357805183526020928301920162000299565b5050858452601f01601f1916604052505b50949350505050565b600060208284031215620002e057600080fd5b81516001600160a01b0381168114620002f857600080fd5b9392505050565b634e487b7160e01b600052604160045260246000fd5b600181811c908216806200032a57607f821691505b6020821081036200034b57634e487b7160e01b600052602260045260246000fd5b50919050565b601f8211156200039f57600081815260208120601f850160051c810160208610156200037a5750805b601f850160051c820191505b818110156200039b5782815560010162000386565b5050505b505050565b81516001600160401b03811115620003c057620003c0620002ff565b620003d881620003d1845462000315565b8462000351565b602080601f831160018114620004105760008415620003f75750858301515b600019600386901b1c1916600185901b1785556200039b565b600085815260208120601f198616915b82811015620004415788860151825594840194600190910190840162000420565b5085821015620004605787850151600019600388901b60f8161c191681555b5050505050600190811b01905550565b600060208083528351808285015260005b818110156200049f5785810183015185820160400152820162000481565b81811115620004b2576000604083870101525b50601f01601f1916929092016040019392505050565b60008219821115620004ea57634e487b7160e01b600052601160045260246000fd5b500190565b612b4580620004ff6000396000f3fe6080604052600436106100f75760003560e01c80636bb56a141161008a5780638da5cb5b116100595780638da5cb5b14610307578063e30c397814610339578063ead3fbdf14610179578063f2fde38b1461035757610132565b80636bb56a14146102aa578063715018a6146102bd57806379ba5097146102d25780637f23690c146102e757610132565b80631626ba7e116100c65780631626ba7e1461021157806344c028fe1461024a5780634e3e6e9c1461026a57806354f6127f1461028a57610132565b806301bfba611461017957806301ffc9a7146101a157806313ced88d146101d157806314a6e293146101f157610132565b3661013257341561013057604051349033907f7e71433ddf847725166244795048ecf3e3f9f35628254ecbf73605666423349390600090a35b005b341561016657604051349033907f7e71433ddf847725166244795048ecf3e3f9f35628254ecbf73605666423349390600090a35b600436101561017157005b610130610377565b34801561018557600080fd5b5061018e606481565b6040519081526020015b60405180910390f35b3480156101ad57600080fd5b506101c16101bc366004612176565b610445565b6040519015158152602001610198565b6101e46101df36600461238b565b610502565b60405161019891906124ef565b3480156101fd57600080fd5b5061013061020c366004612551565b610557565b34801561021d57600080fd5b5061023161022c3660046125b5565b6105f7565b6040516001600160e01b03199091168152602001610198565b61025d6102583660046125f2565b610769565b6040516101989190612647565b34801561027657600080fd5b506101e461028536600461265a565b6107b3565b34801561029657600080fd5b5061025d6102a536600461268f565b610867565b61025d6102b83660046126a8565b610872565b3480156102c957600080fd5b50610130610a21565b3480156102de57600080fd5b50610130610a33565b3480156102f357600080fd5b506101306103023660046125b5565b610a3b565b34801561031357600080fd5b506000546001600160a01b03165b6040516001600160a01b039091168152602001610198565b34801561034557600080fd5b506003546001600160a01b0316610321565b34801561036357600080fd5b50610130610372366004612724565b610a51565b600061038e6000356001600160e01b031916610bf4565b90506000356001600160e01b0319161580156103b157506001600160a01b038116155b156103b95750565b6001600160a01b03811661040c576040517fbb370b2b0000000000000000000000000000000000000000000000000000000081526001600160e01b03196000351660048201526024015b60405180910390fd5b36600080373360601b365234601436015260008060343601600080855af13d6000803e80801561043b573d6000f35b3d6000fd5b505050565b60006001600160e01b03198216630b135d3f60e11b148061048f57506001600160e01b031982167f6676749700000000000000000000000000000000000000000000000000000000145b806104aa57506001600160e01b03198216631aed5a8560e21b145b806104de57506001600160e01b031982167f94be599900000000000000000000000000000000000000000000000000000000145b806104ed57506104ed82610c4c565b806104fc57506104fc82610c8a565b92915050565b606061050c610cc0565b341561054057604051349033907f7e71433ddf847725166244795048ecf3e3f9f35628254ecbf73605666423349390600090a35b61054c85858585610d29565b90505b949350505050565b61055f610cc0565b80518251146105a757815181516040517f43a3c26600000000000000000000000000000000000000000000000000000000815260048101929092526024820152604401610403565b60005b8251811015610440576105ef8382815181106105c8576105c861273f565b60200260200101518383815181106105e2576105e261273f565b6020026020010151610e87565b6001016105aa565b60008061060c6000546001600160a01b031690565b90506001600160a01b0381163b1561072957600080826001600160a01b0316631626ba7e60e01b8787604051602401610646929190612755565b60408051601f198184030181529181526020820180516001600160e01b03166001600160e01b0319909416939093179092529051610684919061276e565b600060405180830381855afa9150503d80600081146106bf576040519150601f19603f3d011682016040523d82523d6000602084013e6106c4565b606091505b509150915060008280156106d9575081516020145b801561070057508151630b135d3f60e11b906106fe908401602090810190850161278a565b145b905080610715576001600160e01b031961071e565b630b135d3f60e11b5b9450505050506104fc565b6107338484610efb565b6001600160a01b0316816001600160a01b031614610759576001600160e01b031961054f565b630b135d3f60e11b949350505050565b6060610773610cc0565b34156107a757604051349033907f7e71433ddf847725166244795048ecf3e3f9f35628254ecbf73605666423349390600090a35b61054c85858585610f1f565b6060815167ffffffffffffffff8111156107cf576107cf6121a0565b60405190808252806020026020018201604052801561080257816020015b60608152602001906001900390816107ed5790505b50905060005b8251811015610861576108338382815181106108265761082661273f565b6020026020010151611075565b8282815181106108455761084561273f565b602002602001018190525061085a8160010190565b9050610808565b50919050565b60606104fc82611075565b606034156108a857604051349033907f7e71433ddf847725166244795048ecf3e3f9f35628254ecbf73605666423349390600090a35b60006108d37f0cfc51aec37c55a4d0b1a65c6255c4bf2fbdf6277f3cc0730c45b828b6db8b47611075565b9050606060148251106109225760006108eb836127a3565b60601c905061090181631aed5a8560e21b611117565b156109205761091d6001600160a01b03821688888833346111a0565b91505b505b600061094e7f0cfc51aec37c55a4d0b100000000000000000000000000000000000000000000886112e8565b9050600061095b82611075565b9050606060148251106109aa576000610973836127a3565b60601c905061098981631aed5a8560e21b611117565b156109a8576109a56001600160a01b0382168b8b8b33346111a0565b91505b505b83816040516020016109bd9291906127df565b60405160208183030381529060405295508834336001600160a01b03167f9c3ba68eb5742b8e3961aea0afc7371a71bf433c8a67a831803b64c064a178c28b8b8b604051610a0d9392919061282d565b60405180910390a450505050509392505050565b610a29610cc0565b610a31611351565b565b610a31611452565b610a43610cc0565b610a4d8282610e87565b5050565b610a59610cc0565b610a628161152a565b50565b6000546001600160a01b03828116911614610a6257600080546001600160a01b038381166001600160a01b0319831681178455604051919092169283917f8be0079c531659141344cd1fd0a4f28419497f9722a3daafe3b4186f6b6457e09190a35050565b606081610ad881601f612869565b1015610b265760405162461bcd60e51b815260206004820152600e60248201527f736c6963655f6f766572666c6f770000000000000000000000000000000000006044820152606401610403565b610b308284612869565b84511015610b805760405162461bcd60e51b815260206004820152601160248201527f736c6963655f6f75744f66426f756e64730000000000000000000000000000006044820152606401610403565b606082158015610b9f5760405191506000825260208201604052610be9565b6040519150601f8416801560200281840101858101878315602002848b0101015b81831015610bd8578051835260209283019201610bc0565b5050858452601f01601f1916604052505b5090505b9392505050565b600080610c2b7fcee78b4094da86011096000000000000000000000000000000000000000000006001600160e01b031985166112e8565b90506000610c3882611075565b610c41906127a3565b60601c949350505050565b60006001600160e01b031982167fa918fa6b0000000000000000000000000000000000000000000000000000000014806104fc57506104fc82611680565b600080610c9d6301ffc9a760e01b610bf4565b90506001600160a01b038116610cb65750600092915050565b610bed8184611117565b33610cd36000546001600160a01b031690565b6001600160a01b031614610a315760405162461bcd60e51b815260206004820181905260248201527f4f776e61626c653a2063616c6c6572206973206e6f7420746865206f776e65726044820152606401610403565b606083518551141580610d4a575082518451141580610d4a57508151835114155b15610d81576040517f3ff55f4d00000000000000000000000000000000000000000000000000000000815260040160405180910390fd5b6000855167ffffffffffffffff811115610d9d57610d9d6121a0565b604051908082528060200260200182016040528015610dd057816020015b6060815260200190600190039081610dbb5790505b50905060005b8651811015610e7d57610e4f878281518110610df457610df461273f565b6020026020010151878381518110610e0e57610e0e61273f565b6020026020010151878481518110610e2857610e2861273f565b6020026020010151878581518110610e4257610e4261273f565b6020026020010151610f1f565b828281518110610e6157610e6161273f565b6020026020010181905250610e768160010190565b9050610dd6565b5095945050505050565b6000828152600160205260409020610e9f8282612903565b50817fece574603820d07bc9b91f2a932baadf4628aabcb8afba49776529c14a6104b261010083511115610ee057610edb836000610100610aca565b610ee2565b825b604051610eef9190612647565b60405180910390a25050565b6000806000610f0a85856116be565b91509150610f1781611703565b509392505050565b606084610f3857610f31848484611868565b905061054f565b60018503610f72576001600160a01b03841615610f6857604051631820c12560e11b815260040160405180910390fd5b610f318383611994565b60028503610fac576001600160a01b03841615610fa257604051631820c12560e11b815260040160405180910390fd5b610f318383611aae565b60038503610ff6578215610fec576040517f72f2bc6a00000000000000000000000000000000000000000000000000000000815260040160405180910390fd5b610f318483611b99565b60048503611040578215611036576040517f5ac8313500000000000000000000000000000000000000000000000000000000815260040160405180910390fd5b610f318483611c98565b6040517f7583b3bc00000000000000000000000000000000000000000000000000000000815260048101869052602401610403565b600081815260016020526040902080546060919061109290612881565b80601f01602080910402602001604051908101604052809291908181526020018280546110be90612881565b801561110b5780601f106110e05761010080835404028352916020019161110b565b820191906000526020600020905b8154815290600101906020018083116110ee57829003601f168201915b50505050509050919050565b604080516001600160e01b03198316602480830191909152825180830390910181526044909101909152602080820180516001600160e01b03166301ffc9a760e01b178152825160009392849283928392918391908a617530fa92503d91506000519050828015611189575060208210155b80156111955750600081115b979650505050505050565b60606000636bb56a1460e01b8787876040516024016111c1939291906129c3565b60408051601f19818403018152918152602080830180516001600160e01b03166001600160e01b031990951694909417909352516112039287918791016129dd565b6040516020818303038152906040529050600080896001600160a01b03168360405161122f919061276e565b6000604051808303816000865af19150503d806000811461126c576040519150601f19603f3d011682016040523d82523d6000602084013e611271565b606091505b50915091506112b682826040518060400160405280602081526020017f43616c6c20746f20756e6976657273616c5265636569766572206661696c6564815250611d44565b5080516000036112c657806112da565b808060200190518101906112da9190612a1c565b9a9950505050505050505050565b604080517fffffffffffffffffffff00000000000000000000000000000000000000000000841660208201526000602a82018190526bffffffffffffffffffffffff198416602c8301529182910160405160208183030381529060405290508061054f90612a8a565b600254439060009061136590606490612869565b90506000611374606483612869565b9050808311156113c1576002839055600380546001600160a01b03191690556040517f81b7f830f1f0084db6497c486cbe6974c86488dcc4e3738eab94ab6d6b1653e790600090a1505050565b81831015611405576040517f8b9bf5070000000000000000000000000000000000000000000000000000000081526004810183905260248101829052604401610403565b61140f6000610a65565b60006002819055600380546001600160a01b03191690556040517fd1f66c3d2bc1993a86be5e3d33709d98f0442381befcedd29f578b9b2506b1ce9190a1505050565b6003546001600160a01b031633146114d25760405162461bcd60e51b815260206004820152602560248201527f4c535031343a2063616c6c6572206973206e6f74207468652070656e64696e6760448201527f4f776e65720000000000000000000000000000000000000000000000000000006064820152608401610403565b6000546001600160a01b03166114e733610a65565b600380546001600160a01b0319169055604080516020810190915260008152611511908290611d5d565b610a623360405180602001604052806000815250611e08565b306001600160a01b0382160361156c576040517f43b248cd00000000000000000000000000000000000000000000000000000000815260040160405180910390fd5b600380546001600160a01b0383166001600160a01b0319909116179055600060028190556115a26000546001600160a01b031690565b9050816001600160a01b0316816001600160a01b03167f38d16b8cac22d99fc7c124b9cd0de2d3fa1faef420bfe791d8c362d765e2270060405160405180910390a36115fd8260405180602001604052806000815250611e6c565b6000546001600160a01b03828116911614610a4d5760405162461bcd60e51b815260206004820152603f60248201527f4c535031343a206e65774f776e6572204d55535420616363657074206f776e6560448201527f727368697020696e2061207365706172617465207472616e73616374696f6e006064820152608401610403565b60006001600160e01b031982167f714df77c0000000000000000000000000000000000000000000000000000000014806104fc57506104fc82611ed0565b60008082516041036116f45760208301516040840151606085015160001a6116e887828585611f1e565b945094505050506116fc565b506000905060025b9250929050565b600081600481111561171757611717612aae565b0361171f5750565b600181600481111561173357611733612aae565b036117805760405162461bcd60e51b815260206004820152601860248201527f45434453413a20696e76616c6964207369676e617475726500000000000000006044820152606401610403565b600281600481111561179457611794612aae565b036117e15760405162461bcd60e51b815260206004820152601f60248201527f45434453413a20696e76616c6964207369676e6174757265206c656e677468006044820152606401610403565b60038160048111156117f5576117f5612aae565b03610a625760405162461bcd60e51b815260206004820152602260248201527f45434453413a20696e76616c6964207369676e6174757265202773272076616c60448201527f75650000000000000000000000000000000000000000000000000000000000006064820152608401610403565b606082471015611894576040516301bf351f60e31b815247600482015260248101849052604401610403565b826001600160a01b03851660007f4810874456b8e6487bd861375cf6abd8e1c8bb5858c8ce36a86a04dabfac199e6118cb86612ac4565b6040516001600160e01b0319909116815260200160405180910390a4600080856001600160a01b03168585604051611903919061276e565b60006040518083038185875af1925050503d8060008114611940576040519150601f19603f3d011682016040523d82523d6000602084013e611945565b606091505b509150915061198a82826040518060400160405280601681526020017f455243373235583a20556e6b6e6f776e204572726f7200000000000000000000815250611d44565b9695505050505050565b6060824710156119c0576040516301bf351f60e31b815247600482015260248101849052604401610403565b81516000036119e25760405163b81cd8d960e01b815260040160405180910390fd5b600082516020840185f090506001600160a01b038116611a2e576040517f0b07489b00000000000000000000000000000000000000000000000000000000815260040160405180910390fd5b6040516bffffffffffffffffffffffff19606083901b166020820152603401604051602081830303815290604052915083816001600160a01b031660017fa1fb700aaee2ae4a2ff6f91ce7eba292f89c2f5488b8ec4c5c5c8150692595c36000801b604051611a9f91815260200190565b60405180910390a45092915050565b60608151600003611ad25760405163b81cd8d960e01b815260040160405180910390fd5b6000611aeb8360208551611ae69190612af8565b611fe2565b90506000611b0884600060208751611b039190612af8565b610aca565b90506000611b17868484612048565b6040516bffffffffffffffffffffffff19606083901b166020820152909150603401604051602081830303815290604052935085816001600160a01b031660027fa1fb700aaee2ae4a2ff6f91ce7eba292f89c2f5488b8ec4c5c5c8150692595c386604051611b8891815260200190565b60405180910390a450505092915050565b606060006001600160a01b03841660037f4810874456b8e6487bd861375cf6abd8e1c8bb5858c8ce36a86a04dabfac199e611bd386612ac4565b6040516001600160e01b0319909116815260200160405180910390a4600080846001600160a01b031684604051611c0a919061276e565b600060405180830381855afa9150503d8060008114611c45576040519150601f19603f3d011682016040523d82523d6000602084013e611c4a565b606091505b5091509150611c8f82826040518060400160405280601681526020017f455243373235583a20556e6b6e6f776e204572726f7200000000000000000000815250611d44565b95945050505050565b606060006001600160a01b03841660047f4810874456b8e6487bd861375cf6abd8e1c8bb5858c8ce36a86a04dabfac199e611cd286612ac4565b6040516001600160e01b0319909116815260200160405180910390a4600080846001600160a01b031684604051611d09919061276e565b600060405180830381855af49150503d8060008114611c45576040519150601f19603f3d011682016040523d82523d6000602084013e611c4a565b60608315611d53575081610bed565b610bed838361214c565b611d6e82631aed5a8560e21b611117565b15610a4d57604051631aed5a8560e21b81526001600160a01b03831690636bb56a1490611dc1907fa4e59c931d14f7c8a7a35027f92ee40b5f2886b9fdcdb78f30bc5ecce5a2f814908590600401612755565b6000604051808303816000875af1158015611de0573d6000803e3d6000fd5b505050506040513d6000823e601f3d908101601f191682016040526104409190810190612a1c565b611e1982631aed5a8560e21b611117565b15610a4d57604051631aed5a8560e21b81526001600160a01b03831690636bb56a1490611dc1907fceca317f109c43507871523e82dc2a3cc64dfa18f12da0b6db14f6e23f995538908590600401612755565b611e7d82631aed5a8560e21b611117565b15610a4d57604051631aed5a8560e21b81526001600160a01b03831690636bb56a1490611dc1907fe17117c9d2665d1dbeb479ed8058bbebde3c50ac50e2e65619f60006caac6926908590600401612755565b60006001600160e01b031982167f570ef0730000000000000000000000000000000000000000000000000000000014806104fc57506301ffc9a760e01b6001600160e01b03198316146104fc565b6000807f7fffffffffffffffffffffffffffffff5d576e7357a4501ddfe92f46681b20a0831115611f555750600090506003611fd9565b6040805160008082526020820180845289905260ff881692820192909252606081018690526080810185905260019060a0016020604051602081039080840390855afa158015611fa9573d6000803e3d6000fd5b5050604051601f1901519150506001600160a01b038116611fd257600060019250925050611fd9565b9150600090505b94509492505050565b6000611fef826020612869565b8351101561203f5760405162461bcd60e51b815260206004820152601560248201527f746f427974657333325f6f75744f66426f756e647300000000000000000000006044820152606401610403565b50016020015190565b60008347101561209a5760405162461bcd60e51b815260206004820152601d60248201527f437265617465323a20696e73756666696369656e742062616c616e63650000006044820152606401610403565b81516000036120eb5760405162461bcd60e51b815260206004820181905260248201527f437265617465323a2062797465636f6465206c656e677468206973207a65726f6044820152606401610403565b8282516020840186f590506001600160a01b038116610bed5760405162461bcd60e51b815260206004820152601960248201527f437265617465323a204661696c6564206f6e206465706c6f79000000000000006044820152606401610403565b81511561215c5781518083602001fd5b8060405162461bcd60e51b81526004016104039190612647565b60006020828403121561218857600080fd5b81356001600160e01b031981168114610bed57600080fd5b634e487b7160e01b600052604160045260246000fd5b604051601f8201601f1916810167ffffffffffffffff811182821017156121df576121df6121a0565b604052919050565b600067ffffffffffffffff821115612201576122016121a0565b5060051b60200190565b600082601f83011261221c57600080fd5b8135602061223161222c836121e7565b6121b6565b82815260059290921b8401810191818101908684111561225057600080fd5b8286015b8481101561226b5780358352918301918301612254565b509695505050505050565b80356001600160a01b038116811461228d57600080fd5b919050565b600067ffffffffffffffff8211156122ac576122ac6121a0565b50601f01601f191660200190565b600082601f8301126122cb57600080fd5b81356122d961222c82612292565b8181528460208386010111156122ee57600080fd5b816020850160208301376000918101602001919091529392505050565b600082601f83011261231c57600080fd5b8135602061232c61222c836121e7565b82815260059290921b8401810191818101908684111561234b57600080fd5b8286015b8481101561226b57803567ffffffffffffffff81111561236f5760008081fd5b61237d8986838b01016122ba565b84525091830191830161234f565b600080600080608085870312156123a157600080fd5b843567ffffffffffffffff808211156123b957600080fd5b6123c58883890161220b565b95506020915081870135818111156123dc57600080fd5b8701601f810189136123ed57600080fd5b80356123fb61222c826121e7565b81815260059190911b8201840190848101908b83111561241a57600080fd5b928501925b8284101561243f5761243084612276565b8252928501929085019061241f565b9750505050604087013591508082111561245857600080fd5b6124648883890161220b565b9350606087013591508082111561247a57600080fd5b506124878782880161230b565b91505092959194509250565b60005b838110156124ae578181015183820152602001612496565b838111156124bd576000848401525b50505050565b600081518084526124db816020860160208601612493565b601f01601f19169290920160200192915050565b6000602080830181845280855180835260408601915060408160051b870101925083870160005b8281101561254457603f198886030184526125328583516124c3565b94509285019290850190600101612516565b5092979650505050505050565b6000806040838503121561256457600080fd5b823567ffffffffffffffff8082111561257c57600080fd5b6125888683870161220b565b9350602085013591508082111561259e57600080fd5b506125ab8582860161230b565b9150509250929050565b600080604083850312156125c857600080fd5b82359150602083013567ffffffffffffffff8111156125e657600080fd5b6125ab858286016122ba565b6000806000806080858703121561260857600080fd5b8435935061261860208601612276565b925060408501359150606085013567ffffffffffffffff81111561263b57600080fd5b612487878288016122ba565b602081526000610bed60208301846124c3565b60006020828403121561266c57600080fd5b813567ffffffffffffffff81111561268357600080fd5b61054f8482850161220b565b6000602082840312156126a157600080fd5b5035919050565b6000806000604084860312156126bd57600080fd5b83359250602084013567ffffffffffffffff808211156126dc57600080fd5b818601915086601f8301126126f057600080fd5b8135818111156126ff57600080fd5b87602082850101111561271157600080fd5b6020830194508093505050509250925092565b60006020828403121561273657600080fd5b610bed82612276565b634e487b7160e01b600052603260045260246000fd5b82815260406020820152600061054f60408301846124c3565b60008251612780818460208701612493565b9190910192915050565b60006020828403121561279c57600080fd5b5051919050565b805160208201516bffffffffffffffffffffffff1980821692919060148310156127d75780818460140360031b1b83161693505b505050919050565b6040815260006127f260408301856124c3565b8281036020840152611c8f81856124c3565b81835281816020850137506000828201602090810191909152601f909101601f19169091010190565b604081526000612841604083018587612804565b828103602084015261198a81856124c3565b634e487b7160e01b600052601160045260246000fd5b6000821982111561287c5761287c612853565b500190565b600181811c9082168061289557607f821691505b60208210810361086157634e487b7160e01b600052602260045260246000fd5b601f82111561044057600081815260208120601f850160051c810160208610156128dc5750805b601f850160051c820191505b818110156128fb578281556001016128e8565b505050505050565b815167ffffffffffffffff81111561291d5761291d6121a0565b6129318161292b8454612881565b846128b5565b602080601f831160018114612966576000841561294e5750858301515b600019600386901b1c1916600185901b1785556128fb565b600085815260208120601f198616915b8281101561299557888601518255948401946001909101908401612976565b50858210156129b35787850151600019600388901b60f8161c191681555b5050505050600190811b01905550565b83815260406020820152600061054c604083018486612804565b600084516129ef818460208901612493565b60609490941b6bffffffffffffffffffffffff191691909301908152601481019190915260340192915050565b600060208284031215612a2e57600080fd5b815167ffffffffffffffff811115612a4557600080fd5b8201601f81018413612a5657600080fd5b8051612a6461222c82612292565b818152856020838501011115612a7957600080fd5b611c8f826020830160208601612493565b805160208083015191908110156108615760001960209190910360031b1b16919050565b634e487b7160e01b600052602160045260246000fd5b6000815160208301516001600160e01b0319808216935060048310156127d75760049290920360031b82901b161692915050565b600082821015612b0a57612b0a612853565b50039056fea26469706673582212200a8bf636e75d248b00fd833931bc903178f953b898dafb4a29f92a686cce857f64736f6c634300080f0033",
  "linkReferences": {},
  "deployedLinkReferences": {}
}